{"bytecode":"60e060405234801561001057600080fd5b50604051620012943803806200129483398101604081905261003191610110565b6001600160a01b0386811660a052851660805261004d336100a2565b600591909155600680546001600160a01b03979097166001600160a81b031990971696909617600160a01b17909555600791909155600855505060c052426009556000600a55600b805460ff1916905561017a565b600180546001600160a01b038381166001600160a01b0319831681179093556040519116919082907f8be0079c531659141344cd1fd0a4f28419497f9722a3daafe3b4186f6b6457e090600090a35050565b80516001600160a01b038116811461010b57600080fd5b919050565b600080600080600080600060e0888a03121561012b57600080fd5b610134886100f4565b9650610142602089016100f4565b9550610150604089016100f4565b9450606088015193506080880151925060a0880151915060c0880151905092959891949750929550565b60805160a05160c0516110dc620001b860003960008181610245015261060f015260008181610750015261097a0152600061094b01526110dc6000f3fe6080604052600436106101355760003560e01c8063715018a6116100ab57806394985ddd1161006f57806394985ddd14610337578063ddca3f4314610357578063e97dcb621461036d578063f2fde38b14610375578063f71d96cb14610395578063fe2f96b0146103b557600080fd5b8063715018a6146102ab57806381447999146102c057806388ab139a146102ee5780638da5cb5b146103045780638e15f4731461032257600080fd5b80634585e33b116100fd5780634585e33b146101c55780634a4a6b4f146101e55780634f8c70cf146101fb578063621e32171461023357806369ebe78e146102675780636e04ff0d1461027d57600080fd5b806309bc33a71461013a578063160344e21461016257806336013189146101795780633dd89b7f1461018f5780633f3b3b27146101af575b600080fd5b34801561014657600080fd5b5061014f6103df565b6040519081526020015b60405180910390f35b34801561016e57600080fd5b5061017761049f565b005b34801561018557600080fd5b5061014f60045481565b34801561019b57600080fd5b506101776101aa366004610d5d565b610552565b3480156101bb57600080fd5b5061014f60095481565b3480156101d157600080fd5b506101776101e0366004610d81565b6105f0565b3480156101f157600080fd5b5061014f600a5481565b34801561020757600080fd5b5060035461021b906001600160a01b031681565b6040516001600160a01b039091168152602001610159565b34801561023f57600080fd5b5061014f7f000000000000000000000000000000000000000000000000000000000000000081565b34801561027357600080fd5b5061014f60085481565b34801561028957600080fd5b5061029d610298366004610d81565b610609565b604051610159929190610e40565b3480156102b757600080fd5b50610177610680565b3480156102cc57600080fd5b506006546102e190600160a01b900460ff1681565b6040516101599190610e71565b3480156102fa57600080fd5b5061014f60055481565b34801561031057600080fd5b506001546001600160a01b031661021b565b34801561032e57600080fd5b5061014f6106b6565b34801561034357600080fd5b50610177610352366004610e99565b610745565b34801561036357600080fd5b5061014f60075481565b6101776107cb565b34801561038157600080fd5b50610177610390366004610ebb565b610882565b3480156103a157600080fd5b5061021b6103b0366004610ee4565b61091d565b3480156103c157600080fd5b50600b546103cf9060ff1681565b6040519015158152602001610159565b600080600660009054906101000a90046001600160a01b03166001600160a01b031663feaf968c6040518163ffffffff1660e01b815260040160a060405180830381865afa158015610435573d6000803e3d6000fd5b505050506040513d601f19601f820116820180604052508101906104599190610f1c565b5050509150506000816402540be4006104729190610f82565b9050600081600554670de0b6b3a764000061048d9190610f82565b6104979190610fb7565b949350505050565b6001546001600160a01b031633146104d25760405162461bcd60e51b81526004016104c990610fcb565b60405180910390fd5b6001600654600160a01b900460ff1660028111156104f2576104f2610e5b565b1461053f5760405162461bcd60e51b815260206004820152601e60248201527f43616e27742073746172742061206e6577206c6f74746572792079657421000060448201526064016104c9565b6006805460ff60a01b1916905542600955565b6001546001600160a01b0316331461057c5760405162461bcd60e51b81526004016104c990610fcb565b6006805460ff60a01b1916600160a11b1790556008546007546000916105a191610947565b90507fe5f5b44d72d4143c278eb745c4acc0695c4a5bc616be5beecf46abe29661780e816040516105d491815260200190565b60405180910390a150600b805460ff1916911515919091179055565b42600955600a54610602906001611000565b600a555050565b600060607f00000000000000000000000000000000000000000000000000000000000000006009544261063c9190611018565b11915083838080601f016020809104026020016040519081016040528093929190818152602001838380828437600092019190915250949792965091945050505050565b6001546001600160a01b031633146106aa5760405162461bcd60e51b81526004016104c990610fcb565b6106b46000610abe565b565b600080600080600080600660009054906101000a90046001600160a01b03166001600160a01b031663feaf968c6040518163ffffffff1660e01b815260040160a060405180830381865afa158015610712573d6000803e3d6000fd5b505050506040513d601f19601f820116820180604052508101906107369190610f1c565b50919998505050505050505050565b336001600160a01b037f000000000000000000000000000000000000000000000000000000000000000016146107bd5760405162461bcd60e51b815260206004820152601f60248201527f4f6e6c7920565246436f6f7264696e61746f722063616e2066756c66696c6c0060448201526064016104c9565b6107c78282610b10565b5050565b6000600654600160a01b900460ff1660028111156107eb576107eb610e5b565b146107f557600080fd5b6107fd6103df565b34101561083e5760405162461bcd60e51b815260206004820152600f60248201526e4e6f7420656e6f756768204554482160881b60448201526064016104c9565b600280546001810182556000919091527f405787fa12a823e0f2b7631cc41b3ba8828b3321ca811111fa75cd3aa3bb5ace0180546001600160a01b03191633179055565b6001546001600160a01b031633146108ac5760405162461bcd60e51b81526004016104c990610fcb565b6001600160a01b0381166109115760405162461bcd60e51b815260206004820152602660248201527f4f776e61626c653a206e6577206f776e657220697320746865207a65726f206160448201526564647265737360d01b60648201526084016104c9565b61091a81610abe565b50565b6002818154811061092d57600080fd5b6000918252602090912001546001600160a01b0316905081565b60007f00000000000000000000000000000000000000000000000000000000000000006001600160a01b0316634000aea07f0000000000000000000000000000000000000000000000000000000000000000848660006040516020016109b7929190918252602082015260400190565b6040516020818303038152906040526040518463ffffffff1660e01b81526004016109e49392919061102f565b6020604051808303816000875af1158015610a03573d6000803e3d6000fd5b505050506040513d601f19601f82011682018060405250810190610a27919061105f565b5060008381526020818152604080832054815180840188905280830185905230606082015260808082018390528351808303909101815260a090910190925281519183019190912086845292909152610a81906001611000565b6000858152602081815260409182902092909255805180830187905280820184905281518082038301815260609091019091528051910120610497565b600180546001600160a01b038381166001600160a01b0319831681179093556040519116919082907f8be0079c531659141344cd1fd0a4f28419497f9722a3daafe3b4186f6b6457e090600090a35050565b6002600654600160a01b900460ff166002811115610b3057610b30610e5b565b14610b755760405162461bcd60e51b8152602060048201526015602482015274596f75206172656e2774207468657265207965742160581b60448201526064016104c9565b60008111610bb85760405162461bcd60e51b815260206004820152601060248201526f1c985b991bdb481b9bdd08199bdd5b9960821b60448201526064016104c9565b600254600090610bc8908361107c565b905060028181548110610bdd57610bdd611090565b60009182526020918290200154600380546001600160a01b0319166001600160a01b039092169182179055600454604080519283529282015284917fe3224b2c436d7c0f4fedd354654e166662fef1c5bb12c11c3894d584d1f42a61910160405180910390a26003546040516001600160a01b03909116904780156108fc02916000818181858888f19350505050158015610c7c573d6000803e3d6000fd5b506040805160008152602081019182905251610c9a91600291610cd5565b506006805460ff60a01b1916600160a01b1790556004829055600b5460ff1615610cd057600b805460ff19169055610cd061049f565b505050565b828054828255906000526020600020908101928215610d2a579160200282015b82811115610d2a57825182546001600160a01b0319166001600160a01b03909116178255602090920191600190910190610cf5565b50610d36929150610d3a565b5090565b5b80821115610d365760008155600101610d3b565b801515811461091a57600080fd5b600060208284031215610d6f57600080fd5b8135610d7a81610d4f565b9392505050565b60008060208385031215610d9457600080fd5b823567ffffffffffffffff80821115610dac57600080fd5b818501915085601f830112610dc057600080fd5b813581811115610dcf57600080fd5b866020828501011115610de157600080fd5b60209290920196919550909350505050565b6000815180845260005b81811015610e1957602081850181015186830182015201610dfd565b81811115610e2b576000602083870101525b50601f01601f19169290920160200192915050565b82151581526040602082015260006104976040830184610df3565b634e487b7160e01b600052602160045260246000fd5b6020810160038310610e9357634e487b7160e01b600052602160045260246000fd5b91905290565b60008060408385031215610eac57600080fd5b50508035926020909101359150565b600060208284031215610ecd57600080fd5b81356001600160a01b0381168114610d7a57600080fd5b600060208284031215610ef657600080fd5b5035919050565b805169ffffffffffffffffffff81168114610f1757600080fd5b919050565b600080600080600060a08688031215610f3457600080fd5b610f3d86610efd565b9450602086015193506040860151925060608601519150610f6060808701610efd565b90509295509295909350565b634e487b7160e01b600052601160045260246000fd5b6000816000190483118215151615610f9c57610f9c610f6c565b500290565b634e487b7160e01b600052601260045260246000fd5b600082610fc657610fc6610fa1565b500490565b6020808252818101527f4f776e61626c653a2063616c6c6572206973206e6f7420746865206f776e6572604082015260600190565b6000821982111561101357611013610f6c565b500190565b60008282101561102a5761102a610f6c565b500390565b60018060a01b03841681528260208201526060604082015260006110566060830184610df3565b95945050505050565b60006020828403121561107157600080fd5b8151610d7a81610d4f565b60008261108b5761108b610fa1565b500690565b634e487b7160e01b600052603260045260246000fdfea264697066735822122036eb690f19474b0251f02d188d29823feae8b723b5a4b661a4e9813deb38eddb64736f6c634300080a0033","bytecodeSha1":"00a29e5bcb76ee7bb73aa2d94043a89bffe13853","type":"contract","abi":[{"inputs":[{"internalType":"address","name":"_priceFeedAddress","type":"address"},{"internalType":"address","name":"_vrfCoordinator","type":"address"},{"internalType":"address","name":"_link","type":"address"},{"internalType":"uint256","name":"_fee","type":"uint256"},{"internalType":"bytes32","name":"_keyhash","type":"bytes32"},{"internalType":"uint256","name":"_usdEntryFee","type":"uint256"},{"internalType":"uint256","name":"duration","type":"uint256"}],"stateMutability":"nonpayable","type":"constructor","name":"constructor"},{"anonymous":false,"inputs":[{"indexed":true,"internalType":"bytes32","name":"requestId","type":"bytes32"},{"indexed":false,"internalType":"address","name":"recentWinner","type":"address"},{"indexed":false,"internalType":"uint256","name":"randomNumber","type":"uint256"}],"name":"LotteryEnded","type":"event"},{"anonymous":false,"inputs":[{"indexed":true,"internalType":"address","name":"previousOwner","type":"address"},{"indexed":true,"internalType":"address","name":"newOwner","type":"address"}],"name":"OwnershipTransferred","type":"event"},{"anonymous":false,"inputs":[{"indexed":false,"internalType":"bytes32","name":"requestId","type":"bytes32"}],"name":"RequestedRandomness","type":"event"},{"inputs":[{"internalType":"bytes","name":"checkData","type":"bytes"}],"name":"checkUpkeep","outputs":[{"internalType":"bool","name":"upkeepNeeded","type":"bool"},{"internalType":"bytes","name":"performData","type":"bytes"}],"stateMutability":"nonpayable","type":"function"},{"inputs":[{"internalType":"bool","name":"_shouldRestart","type":"bool"}],"name":"endLottery","outputs":[],"stateMutability":"nonpayable","type":"function"},{"inputs":[],"name":"enter","outputs":[],"stateMutability":"payable","type":"function"},{"inputs":[],"name":"fee","outputs":[{"internalType":"uint256","name":"","type":"uint256"}],"stateMutability":"view","type":"function"},{"inputs":[],"name":"getEntranceFee","outputs":[{"internalType":"uint256","name":"","type":"uint256"}],"stateMutability":"view","type":"function"},{"inputs":[],"name":"getLatestPrice","outputs":[{"internalType":"int256","name":"","type":"int256"}],"stateMutability":"view","type":"function"},{"inputs":[],"name":"keyhash","outputs":[{"internalType":"bytes32","name":"","type":"bytes32"}],"stateMutability":"view","type":"function"},{"inputs":[],"name":"lastTimeStamp","outputs":[{"internalType":"uint256","name":"","type":"uint256"}],"stateMutability":"view","type":"function"},{"inputs":[],"name":"lotteryCounter","outputs":[{"internalType":"uint256","name":"","type":"uint256"}],"stateMutability":"view","type":"function"},{"inputs":[],"name":"lotteryDurationInSeconds","outputs":[{"internalType":"uint256","name":"","type":"uint256"}],"stateMutability":"view","type":"function"},{"inputs":[],"name":"lottery_state","outputs":[{"internalType":"enum ArtemLottery.LOTTERY_STATE","name":"","type":"uint8"}],"stateMutability":"view","type":"function"},{"inputs":[],"name":"owner","outputs":[{"internalType":"address","name":"","type":"address"}],"stateMutability":"view","type":"function"},{"inputs":[{"internalType":"bytes","name":"performData","type":"bytes"}],"name":"performUpkeep","outputs":[],"stateMutability":"nonpayable","type":"function"},{"inputs":[{"internalType":"uint256","name":"","type":"uint256"}],"name":"players","outputs":[{"internalType":"address payable","name":"","type":"address"}],"stateMutability":"view","type":"function"},{"inputs":[],"name":"randomness","outputs":[{"internalType":"uint256","name":"","type":"uint256"}],"stateMutability":"view","type":"function"},{"inputs":[{"internalType":"bytes32","name":"requestId","type":"bytes32"},{"internalType":"uint256","name":"randomness","type":"uint256"}],"name":"rawFulfillRandomness","outputs":[],"stateMutability":"nonpayable","type":"function"},{"inputs":[],"name":"recentWinner","outputs":[{"internalType":"address payable","name":"","type":"address"}],"stateMutability":"view","type":"function"},{"inputs":[],"name":"renounceOwnership","outputs":[],"stateMutability":"nonpayable","type":"function"},{"inputs":[],"name":"shouldRestart","outputs":[{"internalType":"bool","name":"","type":"bool"}],"stateMutability":"view","type":"function"},{"inputs":[],"name":"startLottery","outputs":[],"stateMutability":"nonpayable","type":"function"},{"inputs":[{"internalType":"address","name":"newOwner","type":"address"}],"name":"transferOwnership","outputs":[],"stateMutability":"nonpayable","type":"function"},{"inputs":[],"name":"usdEntryFee","outputs":[{"internalType":"uint256","name":"","type":"uint256"}],"stateMutability":"view","type":"function"}],"compiler":{"version":"0.8.10+commit.fc410830","evm_version":"istanbul","optimizer":{"enabled":true,"runs":200}},"contractName":"ArtemLottery","language":"Solidity","natspec":{"methods":{"checkUpkeep(bytes)":{"notice":"checks if the contract requires work to be done.","params":{"checkData":"data passed to the contract when checking for upkeep."},"returns":{"performData":"bytes that the keeper should call performUpkeep with, if upkeep is needed.","upkeepNeeded":"boolean to indicate whether the keeper should call performUpkeep or not."}},"owner()":{"details":"Returns the address of the current owner."},"performUpkeep(bytes)":{"notice":"Performs work on the contract. Executed by the keepers, via the registry.","params":{"performData":"is the data which was passed back from the checkData simulation."}},"renounceOwnership()":{"details":"Leaves the contract without owner. It will not be possible to call `onlyOwner` functions anymore. Can only be called by the current owner. NOTE: Renouncing ownership will leave the contract without an owner, thereby removing any functionality that is only available to the owner."},"transferOwnership(address)":{"details":"Transfers ownership of the contract to a new account (`newOwner`). Can only be called by the current owner."},"lotteryDurationInSeconds()":{"notice":"Use an interval in seconds and a timestamp to slow execution of Upkeep"},"getLatestPrice()":{"notice":"Returns the latest price"}},"kind":"dev","version":1},"opcodes":"PUSH1 0x80 PUSH1 0x40 MSTORE PUSH1 0x4 CALLDATASIZE LT PUSH2 0x135 JUMPI PUSH1 0x0 CALLDATALOAD PUSH1 0xE0 SHR DUP1 PUSH4 0x715018A6 GT PUSH2 0xAB JUMPI DUP1 PUSH4 0x94985DDD GT PUSH2 0x6F JUMPI DUP1 PUSH4 0x94985DDD EQ PUSH2 0x337 JUMPI DUP1 PUSH4 0xDDCA3F43 EQ PUSH2 0x357 JUMPI DUP1 PUSH4 0xE97DCB62 EQ PUSH2 0x36D JUMPI DUP1 PUSH4 0xF2FDE38B EQ PUSH2 0x375 JUMPI DUP1 PUSH4 0xF71D96CB EQ PUSH2 0x395 JUMPI DUP1 PUSH4 0xFE2F96B0 EQ PUSH2 0x3B5 JUMPI PUSH1 0x0 DUP1 REVERT JUMPDEST DUP1 PUSH4 0x715018A6 EQ PUSH2 0x2AB JUMPI DUP1 PUSH4 0x81447999 EQ PUSH2 0x2C0 JUMPI DUP1 PUSH4 0x88AB139A EQ PUSH2 0x2EE JUMPI DUP1 PUSH4 0x8DA5CB5B EQ PUSH2 0x304 JUMPI DUP1 PUSH4 0x8E15F473 EQ PUSH2 0x322 JUMPI PUSH1 0x0 DUP1 REVERT JUMPDEST DUP1 PUSH4 0x4585E33B GT PUSH2 0xFD JUMPI DUP1 PUSH4 0x4585E33B EQ PUSH2 0x1C5 JUMPI DUP1 PUSH4 0x4A4A6B4F EQ PUSH2 0x1E5 JUMPI DUP1 PUSH4 0x4F8C70CF EQ PUSH2 0x1FB JUMPI DUP1 PUSH4 0x621E3217 EQ PUSH2 0x233 JUMPI DUP1 PUSH4 0x69EBE78E EQ PUSH2 0x267 JUMPI DUP1 PUSH4 0x6E04FF0D EQ PUSH2 0x27D JUMPI PUSH1 0x0 DUP1 REVERT JUMPDEST DUP1 PUSH4 0x9BC33A7 EQ PUSH2 0x13A JUMPI DUP1 PUSH4 0x160344E2 EQ PUSH2 0x162 JUMPI DUP1 PUSH4 0x36013189 EQ PUSH2 0x179 JUMPI DUP1 PUSH4 0x3DD89B7F EQ PUSH2 0x18F JUMPI DUP1 PUSH4 0x3F3B3B27 EQ PUSH2 0x1AF JUMPI JUMPDEST PUSH1 0x0 DUP1 REVERT JUMPDEST CALLVALUE DUP1 ISZERO PUSH2 0x146 JUMPI PUSH1 0x0 DUP1 REVERT JUMPDEST POP PUSH2 0x14F PUSH2 0x3DF JUMP JUMPDEST PUSH1 0x40 MLOAD SWAP1 DUP2 MSTORE PUSH1 0x20 ADD JUMPDEST PUSH1 0x40 MLOAD DUP1 SWAP2 SUB SWAP1 RETURN JUMPDEST CALLVALUE DUP1 ISZERO PUSH2 0x16E JUMPI PUSH1 0x0 DUP1 REVERT JUMPDEST POP PUSH2 0x177 PUSH2 0x49F JUMP JUMPDEST STOP JUMPDEST CALLVALUE DUP1 ISZERO PUSH2 0x185 JUMPI PUSH1 0x0 DUP1 REVERT JUMPDEST POP PUSH2 0x14F PUSH1 0x4 SLOAD DUP2 JUMP JUMPDEST CALLVALUE DUP1 ISZERO PUSH2 0x19B JUMPI PUSH1 0x0 DUP1 REVERT JUMPDEST POP PUSH2 0x177 PUSH2 0x1AA CALLDATASIZE PUSH1 0x4 PUSH2 0xD5D JUMP JUMPDEST PUSH2 0x552 JUMP JUMPDEST CALLVALUE DUP1 ISZERO PUSH2 0x1BB JUMPI PUSH1 0x0 DUP1 REVERT JUMPDEST POP PUSH2 0x14F PUSH1 0x9 SLOAD DUP2 JUMP JUMPDEST CALLVALUE DUP1 ISZERO PUSH2 0x1D1 JUMPI PUSH1 0x0 DUP1 REVERT JUMPDEST POP PUSH2 0x177 PUSH2 0x1E0 CALLDATASIZE PUSH1 0x4 PUSH2 0xD81 JUMP JUMPDEST PUSH2 0x5F0 JUMP JUMPDEST CALLVALUE DUP1 ISZERO PUSH2 0x1F1 JUMPI PUSH1 0x0 DUP1 REVERT JUMPDEST POP PUSH2 0x14F PUSH1 0xA SLOAD DUP2 JUMP JUMPDEST CALLVALUE DUP1 ISZERO PUSH2 0x207 JUMPI PUSH1 0x0 DUP1 REVERT JUMPDEST POP PUSH1 0x3 SLOAD PUSH2 0x21B SWAP1 PUSH1 0x1 PUSH1 0x1 PUSH1 0xA0 SHL SUB AND DUP2 JUMP JUMPDEST PUSH1 0x40 MLOAD PUSH1 0x1 PUSH1 0x1 PUSH1 0xA0 SHL SUB SWAP1 SWAP2 AND DUP2 MSTORE PUSH1 0x20 ADD PUSH2 0x159 JUMP JUMPDEST CALLVALUE DUP1 ISZERO PUSH2 0x23F JUMPI PUSH1 0x0 DUP1 REVERT JUMPDEST POP PUSH2 0x14F PUSH32 0x0 DUP2 JUMP JUMPDEST CALLVALUE DUP1 ISZERO PUSH2 0x273 JUMPI PUSH1 0x0 DUP1 REVERT JUMPDEST POP PUSH2 0x14F PUSH1 0x8 SLOAD DUP2 JUMP JUMPDEST CALLVALUE DUP1 ISZERO PUSH2 0x289 JUMPI PUSH1 0x0 DUP1 REVERT JUMPDEST POP PUSH2 0x29D PUSH2 0x298 CALLDATASIZE PUSH1 0x4 PUSH2 0xD81 JUMP JUMPDEST PUSH2 0x609 JUMP JUMPDEST PUSH1 0x40 MLOAD PUSH2 0x159 SWAP3 SWAP2 SWAP1 PUSH2 0xE40 JUMP JUMPDEST CALLVALUE DUP1 ISZERO PUSH2 0x2B7 JUMPI PUSH1 0x0 DUP1 REVERT JUMPDEST POP PUSH2 0x177 PUSH2 0x680 JUMP JUMPDEST CALLVALUE DUP1 ISZERO PUSH2 0x2CC JUMPI PUSH1 0x0 DUP1 REVERT JUMPDEST POP PUSH1 0x6 SLOAD PUSH2 0x2E1 SWAP1 PUSH1 0x1 PUSH1 0xA0 SHL SWAP1 DIV PUSH1 0xFF AND DUP2 JUMP JUMPDEST PUSH1 0x40 MLOAD PUSH2 0x159 SWAP2 SWAP1 PUSH2 0xE71 JUMP JUMPDEST CALLVALUE DUP1 ISZERO PUSH2 0x2FA JUMPI PUSH1 0x0 DUP1 REVERT JUMPDEST POP PUSH2 0x14F PUSH1 0x5 SLOAD DUP2 JUMP JUMPDEST CALLVALUE DUP1 ISZERO PUSH2 0x310 JUMPI PUSH1 0x0 DUP1 REVERT JUMPDEST POP PUSH1 0x1 SLOAD PUSH1 0x1 PUSH1 0x1 PUSH1 0xA0 SHL SUB AND PUSH2 0x21B JUMP JUMPDEST CALLVALUE DUP1 ISZERO PUSH2 0x32E JUMPI PUSH1 0x0 DUP1 REVERT JUMPDEST POP PUSH2 0x14F PUSH2 0x6B6 JUMP JUMPDEST CALLVALUE DUP1 ISZERO PUSH2 0x343 JUMPI PUSH1 0x0 DUP1 REVERT JUMPDEST POP PUSH2 0x177 PUSH2 0x352 CALLDATASIZE PUSH1 0x4 PUSH2 0xE99 JUMP JUMPDEST PUSH2 0x745 JUMP JUMPDEST CALLVALUE DUP1 ISZERO PUSH2 0x363 JUMPI PUSH1 0x0 DUP1 REVERT JUMPDEST POP PUSH2 0x14F PUSH1 0x7 SLOAD DUP2 JUMP JUMPDEST PUSH2 0x177 PUSH2 0x7CB JUMP JUMPDEST CALLVALUE DUP1 ISZERO PUSH2 0x381 JUMPI PUSH1 0x0 DUP1 REVERT JUMPDEST POP PUSH2 0x177 PUSH2 0x390 CALLDATASIZE PUSH1 0x4 PUSH2 0xEBB JUMP JUMPDEST PUSH2 0x882 JUMP JUMPDEST CALLVALUE DUP1 ISZERO PUSH2 0x3A1 JUMPI PUSH1 0x0 DUP1 REVERT JUMPDEST POP PUSH2 0x21B PUSH2 0x3B0 CALLDATASIZE PUSH1 0x4 PUSH2 0xEE4 JUMP JUMPDEST PUSH2 0x91D JUMP JUMPDEST CALLVALUE DUP1 ISZERO PUSH2 0x3C1 JUMPI PUSH1 0x0 DUP1 REVERT JUMPDEST POP PUSH1 0xB SLOAD PUSH2 0x3CF SWAP1 PUSH1 0xFF AND DUP2 JUMP JUMPDEST PUSH1 0x40 MLOAD SWAP1 ISZERO ISZERO DUP2 MSTORE PUSH1 0x20 ADD PUSH2 0x159 JUMP JUMPDEST PUSH1 0x0 DUP1 PUSH1 0x6 PUSH1 0x0 SWAP1 SLOAD SWAP1 PUSH2 0x100 EXP SWAP1 DIV PUSH1 0x1 PUSH1 0x1 PUSH1 0xA0 SHL SUB AND PUSH1 0x1 PUSH1 0x1 PUSH1 0xA0 SHL SUB AND PUSH4 0xFEAF968C PUSH1 0x40 MLOAD DUP2 PUSH4 0xFFFFFFFF AND PUSH1 0xE0 SHL DUP2 MSTORE PUSH1 0x4 ADD PUSH1 0xA0 PUSH1 0x40 MLOAD DUP1 DUP4 SUB DUP2 DUP7 GAS STATICCALL ISZERO DUP1 ISZERO PUSH2 0x435 JUMPI RETURNDATASIZE PUSH1 0x0 DUP1 RETURNDATACOPY RETURNDATASIZE PUSH1 0x0 REVERT JUMPDEST POP POP POP POP PUSH1 0x40 MLOAD RETURNDATASIZE PUSH1 0x1F NOT PUSH1 0x1F DUP3 ADD AND DUP3 ADD DUP1 PUSH1 0x40 MSTORE POP DUP2 ADD SWAP1 PUSH2 0x459 SWAP2 SWAP1 PUSH2 0xF1C JUMP JUMPDEST POP POP POP SWAP2 POP POP PUSH1 0x0 DUP2 PUSH5 0x2540BE400 PUSH2 0x472 SWAP2 SWAP1 PUSH2 0xF82 JUMP JUMPDEST SWAP1 POP PUSH1 0x0 DUP2 PUSH1 0x5 SLOAD PUSH8 0xDE0B6B3A7640000 PUSH2 0x48D SWAP2 SWAP1 PUSH2 0xF82 JUMP JUMPDEST PUSH2 0x497 SWAP2 SWAP1 PUSH2 0xFB7 JUMP JUMPDEST SWAP5 SWAP4 POP POP POP POP JUMP JUMPDEST PUSH1 0x1 SLOAD PUSH1 0x1 PUSH1 0x1 PUSH1 0xA0 SHL SUB AND CALLER EQ PUSH2 0x4D2 JUMPI PUSH1 0x40 MLOAD PUSH3 0x461BCD PUSH1 0xE5 SHL DUP2 MSTORE PUSH1 0x4 ADD PUSH2 0x4C9 SWAP1 PUSH2 0xFCB JUMP JUMPDEST PUSH1 0x40 MLOAD DUP1 SWAP2 SUB SWAP1 REVERT JUMPDEST PUSH1 0x1 PUSH1 0x6 SLOAD PUSH1 0x1 PUSH1 0xA0 SHL SWAP1 DIV PUSH1 0xFF AND PUSH1 0x2 DUP2 GT ISZERO PUSH2 0x4F2 JUMPI PUSH2 0x4F2 PUSH2 0xE5B JUMP JUMPDEST EQ PUSH2 0x53F JUMPI PUSH1 0x40 MLOAD PUSH3 0x461BCD PUSH1 0xE5 SHL DUP2 MSTORE PUSH1 0x20 PUSH1 0x4 DUP3 ADD MSTORE PUSH1 0x1E PUSH1 0x24 DUP3 ADD MSTORE PUSH32 0x43616E27742073746172742061206E6577206C6F747465727920796574210000 PUSH1 0x44 DUP3 ADD MSTORE PUSH1 0x64 ADD PUSH2 0x4C9 JUMP JUMPDEST PUSH1 0x6 DUP1 SLOAD PUSH1 0xFF PUSH1 0xA0 SHL NOT AND SWAP1 SSTORE TIMESTAMP PUSH1 0x9 SSTORE JUMP JUMPDEST PUSH1 0x1 SLOAD PUSH1 0x1 PUSH1 0x1 PUSH1 0xA0 SHL SUB AND CALLER EQ PUSH2 0x57C JUMPI PUSH1 0x40 MLOAD PUSH3 0x461BCD PUSH1 0xE5 SHL DUP2 MSTORE PUSH1 0x4 ADD PUSH2 0x4C9 SWAP1 PUSH2 0xFCB JUMP JUMPDEST PUSH1 0x6 DUP1 SLOAD PUSH1 0xFF PUSH1 0xA0 SHL NOT AND PUSH1 0x1 PUSH1 0xA1 SHL OR SWAP1 SSTORE PUSH1 0x8 SLOAD PUSH1 0x7 SLOAD PUSH1 0x0 SWAP2 PUSH2 0x5A1 SWAP2 PUSH2 0x947 JUMP JUMPDEST SWAP1 POP PUSH32 0xE5F5B44D72D4143C278EB745C4ACC0695C4A5BC616BE5BEECF46ABE29661780E DUP2 PUSH1 0x40 MLOAD PUSH2 0x5D4 SWAP2 DUP2 MSTORE PUSH1 0x20 ADD SWAP1 JUMP JUMPDEST PUSH1 0x40 MLOAD DUP1 SWAP2 SUB SWAP1 LOG1 POP PUSH1 0xB DUP1 SLOAD PUSH1 0xFF NOT AND SWAP2 ISZERO ISZERO SWAP2 SWAP1 SWAP2 OR SWAP1 SSTORE JUMP JUMPDEST TIMESTAMP PUSH1 0x9 SSTORE PUSH1 0xA SLOAD PUSH2 0x602 SWAP1 PUSH1 0x1 PUSH2 0x1000 JUMP JUMPDEST PUSH1 0xA SSTORE POP POP JUMP JUMPDEST PUSH1 0x0 PUSH1 0x60 PUSH32 0x0 PUSH1 0x9 SLOAD TIMESTAMP PUSH2 0x63C SWAP2 SWAP1 PUSH2 0x1018 JUMP JUMPDEST GT SWAP2 POP DUP4 DUP4 DUP1 DUP1 PUSH1 0x1F ADD PUSH1 0x20 DUP1 SWAP2 DIV MUL PUSH1 0x20 ADD PUSH1 0x40 MLOAD SWAP1 DUP2 ADD PUSH1 0x40 MSTORE DUP1 SWAP4 SWAP3 SWAP2 SWAP1 DUP2 DUP2 MSTORE PUSH1 0x20 ADD DUP4 DUP4 DUP1 DUP3 DUP5 CALLDATACOPY PUSH1 0x0 SWAP3 ADD SWAP2 SWAP1 SWAP2 MSTORE POP SWAP5 SWAP8 SWAP3 SWAP7 POP SWAP2 SWAP5 POP POP POP POP POP JUMP JUMPDEST PUSH1 0x1 SLOAD PUSH1 0x1 PUSH1 0x1 PUSH1 0xA0 SHL SUB AND CALLER EQ PUSH2 0x6AA JUMPI PUSH1 0x40 MLOAD PUSH3 0x461BCD PUSH1 0xE5 SHL DUP2 MSTORE PUSH1 0x4 ADD PUSH2 0x4C9 SWAP1 PUSH2 0xFCB JUMP JUMPDEST PUSH2 0x6B4 PUSH1 0x0 PUSH2 0xABE JUMP JUMPDEST JUMP JUMPDEST PUSH1 0x0 DUP1 PUSH1 0x0 DUP1 PUSH1 0x0 DUP1 PUSH1 0x6 PUSH1 0x0 SWAP1 SLOAD SWAP1 PUSH2 0x100 EXP SWAP1 DIV PUSH1 0x1 PUSH1 0x1 PUSH1 0xA0 SHL SUB AND PUSH1 0x1 PUSH1 0x1 PUSH1 0xA0 SHL SUB AND PUSH4 0xFEAF968C PUSH1 0x40 MLOAD DUP2 PUSH4 0xFFFFFFFF AND PUSH1 0xE0 SHL DUP2 MSTORE PUSH1 0x4 ADD PUSH1 0xA0 PUSH1 0x40 MLOAD DUP1 DUP4 SUB DUP2 DUP7 GAS STATICCALL ISZERO DUP1 ISZERO PUSH2 0x712 JUMPI RETURNDATASIZE PUSH1 0x0 DUP1 RETURNDATACOPY RETURNDATASIZE PUSH1 0x0 REVERT JUMPDEST POP POP POP POP PUSH1 0x40 MLOAD RETURNDATASIZE PUSH1 0x1F NOT PUSH1 0x1F DUP3 ADD AND DUP3 ADD DUP1 PUSH1 0x40 MSTORE POP DUP2 ADD SWAP1 PUSH2 0x736 SWAP2 SWAP1 PUSH2 0xF1C JUMP JUMPDEST POP SWAP2 SWAP10 SWAP9 POP POP POP POP POP POP POP POP POP JUMP JUMPDEST CALLER PUSH1 0x1 PUSH1 0x1 PUSH1 0xA0 SHL SUB PUSH32 0x0 AND EQ PUSH2 0x7BD JUMPI PUSH1 0x40 MLOAD PUSH3 0x461BCD PUSH1 0xE5 SHL DUP2 MSTORE PUSH1 0x20 PUSH1 0x4 DUP3 ADD MSTORE PUSH1 0x1F PUSH1 0x24 DUP3 ADD MSTORE PUSH32 0x4F6E6C7920565246436F6F7264696E61746F722063616E2066756C66696C6C00 PUSH1 0x44 DUP3 ADD MSTORE PUSH1 0x64 ADD PUSH2 0x4C9 JUMP JUMPDEST PUSH2 0x7C7 DUP3 DUP3 PUSH2 0xB10 JUMP JUMPDEST POP POP JUMP JUMPDEST PUSH1 0x0 PUSH1 0x6 SLOAD PUSH1 0x1 PUSH1 0xA0 SHL SWAP1 DIV PUSH1 0xFF AND PUSH1 0x2 DUP2 GT ISZERO PUSH2 0x7EB JUMPI PUSH2 0x7EB PUSH2 0xE5B JUMP JUMPDEST EQ PUSH2 0x7F5 JUMPI PUSH1 0x0 DUP1 REVERT JUMPDEST PUSH2 0x7FD PUSH2 0x3DF JUMP JUMPDEST CALLVALUE LT ISZERO PUSH2 0x83E JUMPI PUSH1 0x40 MLOAD PUSH3 0x461BCD PUSH1 0xE5 SHL DUP2 MSTORE PUSH1 0x20 PUSH1 0x4 DUP3 ADD MSTORE PUSH1 0xF PUSH1 0x24 DUP3 ADD MSTORE PUSH15 0x4E6F7420656E6F7567682045544821 PUSH1 0x88 SHL PUSH1 0x44 DUP3 ADD MSTORE PUSH1 0x64 ADD PUSH2 0x4C9 JUMP JUMPDEST PUSH1 0x2 DUP1 SLOAD PUSH1 0x1 DUP2 ADD DUP3 SSTORE PUSH1 0x0 SWAP2 SWAP1 SWAP2 MSTORE PUSH32 0x405787FA12A823E0F2B7631CC41B3BA8828B3321CA811111FA75CD3AA3BB5ACE ADD DUP1 SLOAD PUSH1 0x1 PUSH1 0x1 PUSH1 0xA0 SHL SUB NOT AND CALLER OR SWAP1 SSTORE JUMP JUMPDEST PUSH1 0x1 SLOAD PUSH1 0x1 PUSH1 0x1 PUSH1 0xA0 SHL SUB AND CALLER EQ PUSH2 0x8AC JUMPI PUSH1 0x40 MLOAD PUSH3 0x461BCD PUSH1 0xE5 SHL DUP2 MSTORE PUSH1 0x4 ADD PUSH2 0x4C9 SWAP1 PUSH2 0xFCB JUMP JUMPDEST PUSH1 0x1 PUSH1 0x1 PUSH1 0xA0 SHL SUB DUP2 AND PUSH2 0x911 JUMPI PUSH1 0x40 MLOAD PUSH3 0x461BCD PUSH1 0xE5 SHL DUP2 MSTORE PUSH1 0x20 PUSH1 0x4 DUP3 ADD MSTORE PUSH1 0x26 PUSH1 0x24 DUP3 ADD MSTORE PUSH32 0x4F776E61626C653A206E6577206F776E657220697320746865207A65726F2061 PUSH1 0x44 DUP3 ADD MSTORE PUSH6 0x646472657373 PUSH1 0xD0 SHL PUSH1 0x64 DUP3 ADD MSTORE PUSH1 0x84 ADD PUSH2 0x4C9 JUMP JUMPDEST PUSH2 0x91A DUP2 PUSH2 0xABE JUMP JUMPDEST POP JUMP JUMPDEST PUSH1 0x2 DUP2 DUP2 SLOAD DUP2 LT PUSH2 0x92D JUMPI PUSH1 0x0 DUP1 REVERT JUMPDEST PUSH1 0x0 SWAP2 DUP3 MSTORE PUSH1 0x20 SWAP1 SWAP2 KECCAK256 ADD SLOAD PUSH1 0x1 PUSH1 0x1 PUSH1 0xA0 SHL SUB AND SWAP1 POP DUP2 JUMP JUMPDEST PUSH1 0x0 PUSH32 0x0 PUSH1 0x1 PUSH1 0x1 PUSH1 0xA0 SHL SUB AND PUSH4 0x4000AEA0 PUSH32 0x0 DUP5 DUP7 PUSH1 0x0 PUSH1 0x40 MLOAD PUSH1 0x20 ADD PUSH2 0x9B7 SWAP3 SWAP2 SWAP1 SWAP2 DUP3 MSTORE PUSH1 0x20 DUP3 ADD MSTORE PUSH1 0x40 ADD SWAP1 JUMP JUMPDEST PUSH1 0x40 MLOAD PUSH1 0x20 DUP2 DUP4 SUB SUB DUP2 MSTORE SWAP1 PUSH1 0x40 MSTORE PUSH1 0x40 MLOAD DUP5 PUSH4 0xFFFFFFFF AND PUSH1 0xE0 SHL DUP2 MSTORE PUSH1 0x4 ADD PUSH2 0x9E4 SWAP4 SWAP3 SWAP2 SWAP1 PUSH2 0x102F JUMP JUMPDEST PUSH1 0x20 PUSH1 0x40 MLOAD DUP1 DUP4 SUB DUP2 PUSH1 0x0 DUP8 GAS CALL ISZERO DUP1 ISZERO PUSH2 0xA03 JUMPI RETURNDATASIZE PUSH1 0x0 DUP1 RETURNDATACOPY RETURNDATASIZE PUSH1 0x0 REVERT JUMPDEST POP POP POP POP PUSH1 0x40 MLOAD RETURNDATASIZE PUSH1 0x1F NOT PUSH1 0x1F DUP3 ADD AND DUP3 ADD DUP1 PUSH1 0x40 MSTORE POP DUP2 ADD SWAP1 PUSH2 0xA27 SWAP2 SWAP1 PUSH2 0x105F JUMP JUMPDEST POP PUSH1 0x0 DUP4 DUP2 MSTORE PUSH1 0x20 DUP2 DUP2 MSTORE PUSH1 0x40 DUP1 DUP4 KECCAK256 SLOAD DUP2 MLOAD DUP1 DUP5 ADD DUP9 SWAP1 MSTORE DUP1 DUP4 ADD DUP6 SWAP1 MSTORE ADDRESS PUSH1 0x60 DUP3 ADD MSTORE PUSH1 0x80 DUP1 DUP3 ADD DUP4 SWAP1 MSTORE DUP4 MLOAD DUP1 DUP4 SUB SWAP1 SWAP2 ADD DUP2 MSTORE PUSH1 0xA0 SWAP1 SWAP2 ADD SWAP1 SWAP3 MSTORE DUP2 MLOAD SWAP2 DUP4 ADD SWAP2 SWAP1 SWAP2 KECCAK256 DUP7 DUP5 MSTORE SWAP3 SWAP1 SWAP2 MSTORE PUSH2 0xA81 SWAP1 PUSH1 0x1 PUSH2 0x1000 JUMP JUMPDEST PUSH1 0x0 DUP6 DUP2 MSTORE PUSH1 0x20 DUP2 DUP2 MSTORE PUSH1 0x40 SWAP2 DUP3 SWAP1 KECCAK256 SWAP3 SWAP1 SWAP3 SSTORE DUP1 MLOAD DUP1 DUP4 ADD DUP8 SWAP1 MSTORE DUP1 DUP3 ADD DUP5 SWAP1 MSTORE DUP2 MLOAD DUP1 DUP3 SUB DUP4 ADD DUP2 MSTORE PUSH1 0x60 SWAP1 SWAP2 ADD SWAP1 SWAP2 MSTORE DUP1 MLOAD SWAP2 ADD KECCAK256 PUSH2 0x497 JUMP JUMPDEST PUSH1 0x1 DUP1 SLOAD PUSH1 0x1 PUSH1 0x1 PUSH1 0xA0 SHL SUB DUP4 DUP2 AND PUSH1 0x1 PUSH1 0x1 PUSH1 0xA0 SHL SUB NOT DUP4 AND DUP2 OR SWAP1 SWAP4 SSTORE PUSH1 0x40 MLOAD SWAP2 AND SWAP2 SWAP1 DUP3 SWAP1 PUSH32 0x8BE0079C531659141344CD1FD0A4F28419497F9722A3DAAFE3B4186F6B6457E0 SWAP1 PUSH1 0x0 SWAP1 LOG3 POP POP JUMP JUMPDEST PUSH1 0x2 PUSH1 0x6 SLOAD PUSH1 0x1 PUSH1 0xA0 SHL SWAP1 DIV PUSH1 0xFF AND PUSH1 0x2 DUP2 GT ISZERO PUSH2 0xB30 JUMPI PUSH2 0xB30 PUSH2 0xE5B JUMP JUMPDEST EQ PUSH2 0xB75 JUMPI PUSH1 0x40 MLOAD PUSH3 0x461BCD PUSH1 0xE5 SHL DUP2 MSTORE PUSH1 0x20 PUSH1 0x4 DUP3 ADD MSTORE PUSH1 0x15 PUSH1 0x24 DUP3 ADD MSTORE PUSH21 0x596F75206172656E27742074686572652079657421 PUSH1 0x58 SHL PUSH1 0x44 DUP3 ADD MSTORE PUSH1 0x64 ADD PUSH2 0x4C9 JUMP JUMPDEST PUSH1 0x0 DUP2 GT PUSH2 0xBB8 JUMPI PUSH1 0x40 MLOAD PUSH3 0x461BCD PUSH1 0xE5 SHL DUP2 MSTORE PUSH1 0x20 PUSH1 0x4 DUP3 ADD MSTORE PUSH1 0x10 PUSH1 0x24 DUP3 ADD MSTORE PUSH16 0x1C985B991BDB481B9BDD08199BDD5B99 PUSH1 0x82 SHL PUSH1 0x44 DUP3 ADD MSTORE PUSH1 0x64 ADD PUSH2 0x4C9 JUMP JUMPDEST PUSH1 0x2 SLOAD PUSH1 0x0 SWAP1 PUSH2 0xBC8 SWAP1 DUP4 PUSH2 0x107C JUMP JUMPDEST SWAP1 POP PUSH1 0x2 DUP2 DUP2 SLOAD DUP2 LT PUSH2 0xBDD JUMPI PUSH2 0xBDD PUSH2 0x1090 JUMP JUMPDEST PUSH1 0x0 SWAP2 DUP3 MSTORE PUSH1 0x20 SWAP2 DUP3 SWAP1 KECCAK256 ADD SLOAD PUSH1 0x3 DUP1 SLOAD PUSH1 0x1 PUSH1 0x1 PUSH1 0xA0 SHL SUB NOT AND PUSH1 0x1 PUSH1 0x1 PUSH1 0xA0 SHL SUB SWAP1 SWAP3 AND SWAP2 DUP3 OR SWAP1 SSTORE PUSH1 0x4 SLOAD PUSH1 0x40 DUP1 MLOAD SWAP3 DUP4 MSTORE SWAP3 DUP3 ADD MSTORE DUP5 SWAP2 PUSH32 0xE3224B2C436D7C0F4FEDD354654E166662FEF1C5BB12C11C3894D584D1F42A61 SWAP2 ADD PUSH1 0x40 MLOAD DUP1 SWAP2 SUB SWAP1 LOG2 PUSH1 0x3 SLOAD PUSH1 0x40 MLOAD PUSH1 0x1 PUSH1 0x1 PUSH1 0xA0 SHL SUB SWAP1 SWAP2 AND SWAP1 SELFBALANCE DUP1 ISZERO PUSH2 0x8FC MUL SWAP2 PUSH1 0x0 DUP2 DUP2 DUP2 DUP6 DUP9 DUP9 CALL SWAP4 POP POP POP POP ISZERO DUP1 ISZERO PUSH2 0xC7C JUMPI RETURNDATASIZE PUSH1 0x0 DUP1 RETURNDATACOPY RETURNDATASIZE PUSH1 0x0 REVERT JUMPDEST POP PUSH1 0x40 DUP1 MLOAD PUSH1 0x0 DUP2 MSTORE PUSH1 0x20 DUP2 ADD SWAP2 DUP3 SWAP1 MSTORE MLOAD PUSH2 0xC9A SWAP2 PUSH1 0x2 SWAP2 PUSH2 0xCD5 JUMP JUMPDEST POP PUSH1 0x6 DUP1 SLOAD PUSH1 0xFF PUSH1 0xA0 SHL NOT AND PUSH1 0x1 PUSH1 0xA0 SHL OR SWAP1 SSTORE PUSH1 0x4 DUP3 SWAP1 SSTORE PUSH1 0xB SLOAD PUSH1 0xFF AND ISZERO PUSH2 0xCD0 JUMPI PUSH1 0xB DUP1 SLOAD PUSH1 0xFF NOT AND SWAP1 SSTORE PUSH2 0xCD0 PUSH2 0x49F JUMP JUMPDEST POP POP POP JUMP JUMPDEST DUP3 DUP1 SLOAD DUP3 DUP3 SSTORE SWAP1 PUSH1 0x0 MSTORE PUSH1 0x20 PUSH1 0x0 KECCAK256 SWAP1 DUP2 ADD SWAP3 DUP3 ISZERO PUSH2 0xD2A JUMPI SWAP2 PUSH1 0x20 MUL DUP3 ADD JUMPDEST DUP3 DUP2 GT ISZERO PUSH2 0xD2A JUMPI DUP3 MLOAD DUP3 SLOAD PUSH1 0x1 PUSH1 0x1 PUSH1 0xA0 SHL SUB NOT AND PUSH1 0x1 PUSH1 0x1 PUSH1 0xA0 SHL SUB SWAP1 SWAP2 AND OR DUP3 SSTORE PUSH1 0x20 SWAP1 SWAP3 ADD SWAP2 PUSH1 0x1 SWAP1 SWAP2 ADD SWAP1 PUSH2 0xCF5 JUMP JUMPDEST POP PUSH2 0xD36 SWAP3 SWAP2 POP PUSH2 0xD3A JUMP JUMPDEST POP SWAP1 JUMP JUMPDEST JUMPDEST DUP1 DUP3 GT ISZERO PUSH2 0xD36 JUMPI PUSH1 0x0 DUP2 SSTORE PUSH1 0x1 ADD PUSH2 0xD3B JUMP JUMPDEST DUP1 ISZERO ISZERO DUP2 EQ PUSH2 0x91A JUMPI PUSH1 0x0 DUP1 REVERT JUMPDEST PUSH1 0x0 PUSH1 0x20 DUP3 DUP5 SUB SLT ISZERO PUSH2 0xD6F JUMPI PUSH1 0x0 DUP1 REVERT JUMPDEST DUP2 CALLDATALOAD PUSH2 0xD7A DUP2 PUSH2 0xD4F JUMP JUMPDEST SWAP4 SWAP3 POP POP POP JUMP JUMPDEST PUSH1 0x0 DUP1 PUSH1 0x20 DUP4 DUP6 SUB SLT ISZERO PUSH2 0xD94 JUMPI PUSH1 0x0 DUP1 REVERT JUMPDEST DUP3 CALLDATALOAD PUSH8 0xFFFFFFFFFFFFFFFF DUP1 DUP3 GT ISZERO PUSH2 0xDAC JUMPI PUSH1 0x0 DUP1 REVERT JUMPDEST DUP2 DUP6 ADD SWAP2 POP DUP6 PUSH1 0x1F DUP4 ADD SLT PUSH2 0xDC0 JUMPI PUSH1 0x0 DUP1 REVERT JUMPDEST DUP2 CALLDATALOAD DUP2 DUP2 GT ISZERO PUSH2 0xDCF JUMPI PUSH1 0x0 DUP1 REVERT JUMPDEST DUP7 PUSH1 0x20 DUP3 DUP6 ADD ADD GT ISZERO PUSH2 0xDE1 JUMPI PUSH1 0x0 DUP1 REVERT JUMPDEST PUSH1 0x20 SWAP3 SWAP1 SWAP3 ADD SWAP7 SWAP2 SWAP6 POP SWAP1 SWAP4 POP POP POP POP JUMP JUMPDEST PUSH1 0x0 DUP2 MLOAD DUP1 DUP5 MSTORE PUSH1 0x0 JUMPDEST DUP2 DUP2 LT ISZERO PUSH2 0xE19 JUMPI PUSH1 0x20 DUP2 DUP6 ADD DUP2 ADD MLOAD DUP7 DUP4 ADD DUP3 ADD MSTORE ADD PUSH2 0xDFD JUMP JUMPDEST DUP2 DUP2 GT ISZERO PUSH2 0xE2B JUMPI PUSH1 0x0 PUSH1 0x20 DUP4 DUP8 ADD ADD MSTORE JUMPDEST POP PUSH1 0x1F ADD PUSH1 0x1F NOT AND SWAP3 SWAP1 SWAP3 ADD PUSH1 0x20 ADD SWAP3 SWAP2 POP POP JUMP JUMPDEST DUP3 ISZERO ISZERO DUP2 MSTORE PUSH1 0x40 PUSH1 0x20 DUP3 ADD MSTORE PUSH1 0x0 PUSH2 0x497 PUSH1 0x40 DUP4 ADD DUP5 PUSH2 0xDF3 JUMP JUMPDEST PUSH4 0x4E487B71 PUSH1 0xE0 SHL PUSH1 0x0 MSTORE PUSH1 0x21 PUSH1 0x4 MSTORE PUSH1 0x24 PUSH1 0x0 REVERT JUMPDEST PUSH1 0x20 DUP2 ADD PUSH1 0x3 DUP4 LT PUSH2 0xE93 JUMPI PUSH4 0x4E487B71 PUSH1 0xE0 SHL PUSH1 0x0 MSTORE PUSH1 0x21 PUSH1 0x4 MSTORE PUSH1 0x24 PUSH1 0x0 REVERT JUMPDEST SWAP2 SWAP1 MSTORE SWAP1 JUMP JUMPDEST PUSH1 0x0 DUP1 PUSH1 0x40 DUP4 DUP6 SUB SLT ISZERO PUSH2 0xEAC JUMPI PUSH1 0x0 DUP1 REVERT JUMPDEST POP POP DUP1 CALLDATALOAD SWAP3 PUSH1 0x20 SWAP1 SWAP2 ADD CALLDATALOAD SWAP2 POP JUMP JUMPDEST PUSH1 0x0 PUSH1 0x20 DUP3 DUP5 SUB SLT ISZERO PUSH2 0xECD JUMPI PUSH1 0x0 DUP1 REVERT JUMPDEST DUP2 CALLDATALOAD PUSH1 0x1 PUSH1 0x1 PUSH1 0xA0 SHL SUB DUP2 AND DUP2 EQ PUSH2 0xD7A JUMPI PUSH1 0x0 DUP1 REVERT JUMPDEST PUSH1 0x0 PUSH1 0x20 DUP3 DUP5 SUB SLT ISZERO PUSH2 0xEF6 JUMPI PUSH1 0x0 DUP1 REVERT JUMPDEST POP CALLDATALOAD SWAP2 SWAP1 POP JUMP JUMPDEST DUP1 MLOAD PUSH10 0xFFFFFFFFFFFFFFFFFFFF DUP2 AND DUP2 EQ PUSH2 0xF17 JUMPI PUSH1 0x0 DUP1 REVERT JUMPDEST SWAP2 SWAP1 POP JUMP JUMPDEST PUSH1 0x0 DUP1 PUSH1 0x0 DUP1 PUSH1 0x0 PUSH1 0xA0 DUP7 DUP9 SUB SLT ISZERO PUSH2 0xF34 JUMPI PUSH1 0x0 DUP1 REVERT JUMPDEST PUSH2 0xF3D DUP7 PUSH2 0xEFD JUMP JUMPDEST SWAP5 POP PUSH1 0x20 DUP7 ADD MLOAD SWAP4 POP PUSH1 0x40 DUP7 ADD MLOAD SWAP3 POP PUSH1 0x60 DUP7 ADD MLOAD SWAP2 POP PUSH2 0xF60 PUSH1 0x80 DUP8 ADD PUSH2 0xEFD JUMP JUMPDEST SWAP1 POP SWAP3 SWAP6 POP SWAP3 SWAP6 SWAP1 SWAP4 POP JUMP JUMPDEST PUSH4 0x4E487B71 PUSH1 0xE0 SHL PUSH1 0x0 MSTORE PUSH1 0x11 PUSH1 0x4 MSTORE PUSH1 0x24 PUSH1 0x0 REVERT JUMPDEST PUSH1 0x0 DUP2 PUSH1 0x0 NOT DIV DUP4 GT DUP3 ISZERO ISZERO AND ISZERO PUSH2 0xF9C JUMPI PUSH2 0xF9C PUSH2 0xF6C JUMP JUMPDEST POP MUL SWAP1 JUMP JUMPDEST PUSH4 0x4E487B71 PUSH1 0xE0 SHL PUSH1 0x0 MSTORE PUSH1 0x12 PUSH1 0x4 MSTORE PUSH1 0x24 PUSH1 0x0 REVERT JUMPDEST PUSH1 0x0 DUP3 PUSH2 0xFC6 JUMPI PUSH2 0xFC6 PUSH2 0xFA1 JUMP JUMPDEST POP DIV SWAP1 JUMP JUMPDEST PUSH1 0x20 DUP1 DUP3 MSTORE DUP2 DUP2 ADD MSTORE PUSH32 0x4F776E61626C653A2063616C6C6572206973206E6F7420746865206F776E6572 PUSH1 0x40 DUP3 ADD MSTORE PUSH1 0x60 ADD SWAP1 JUMP JUMPDEST PUSH1 0x0 DUP3 NOT DUP3 GT ISZERO PUSH2 0x1013 JUMPI PUSH2 0x1013 PUSH2 0xF6C JUMP JUMPDEST POP ADD SWAP1 JUMP JUMPDEST PUSH1 0x0 DUP3 DUP3 LT ISZERO PUSH2 0x102A JUMPI PUSH2 0x102A PUSH2 0xF6C JUMP JUMPDEST POP SUB SWAP1 JUMP JUMPDEST PUSH1 0x1 DUP1 PUSH1 0xA0 SHL SUB DUP5 AND DUP2 MSTORE DUP3 PUSH1 0x20 DUP3 ADD MSTORE PUSH1 0x60 PUSH1 0x40 DUP3 ADD MSTORE PUSH1 0x0 PUSH2 0x1056 PUSH1 0x60 DUP4 ADD DUP5 PUSH2 0xDF3 JUMP JUMPDEST SWAP6 SWAP5 POP POP POP POP POP JUMP JUMPDEST PUSH1 0x0 PUSH1 0x20 DUP3 DUP5 SUB SLT ISZERO PUSH2 0x1071 JUMPI PUSH1 0x0 DUP1 REVERT JUMPDEST DUP2 MLOAD PUSH2 0xD7A DUP2 PUSH2 0xD4F JUMP JUMPDEST PUSH1 0x0 DUP3 PUSH2 0x108B JUMPI PUSH2 0x108B PUSH2 0xFA1 JUMP JUMPDEST POP MOD SWAP1 JUMP JUMPDEST PUSH4 0x4E487B71 PUSH1 0xE0 SHL PUSH1 0x0 MSTORE PUSH1 0x32 PUSH1 0x4 MSTORE PUSH1 0x24 PUSH1 0x0 REVERT INVALID LOG2 PUSH5 0x6970667358 0x22 SLT KECCAK256 CALLDATASIZE 0xEB PUSH10 0xF19474B0251F02D188D 0x29 DUP3 EXTCODEHASH 0xEA 0xE8 0xB7 0x23 0xB5 LOG4 0xB6 PUSH2 0xA4E9 DUP2 RETURNDATASIZE 0xEB CODESIZE 0xED 0xDB PUSH5 0x736F6C6343 STOP ADDMOD EXP STOP CALLER ","sha1":"12da03f3720ca72354aa59cb0ff1c487aef60723","source":"// SPDX-License-Identifier: MIT\npragma solidity ^0.8.0;\n\nimport \"@chainlink/contracts/src/v0.8/VRFConsumerBase.sol\";\nimport \"@openzeppelin/contracts/access/Ownable.sol\";\nimport \"@chainlink/contracts/src/v0.8/interfaces/AggregatorV3Interface.sol\";\nimport \"@chainlink/contracts/src/v0.8/interfaces/KeeperCompatibleInterface.sol\";\n\ncontract ArtemLottery is VRFConsumerBase, Ownable, KeeperCompatibleInterface {\n    address payable[] public players;\n    address payable public recentWinner;\n    uint256 public randomness;\n    uint256 public usdEntryFee;\n    AggregatorV3Interface internal ethUsdPriceFeed;\n    enum LOTTERY_STATE {\n        OPEN,\n        CLOSED,\n        CALCULATING_WINNER\n    }\n    LOTTERY_STATE public lottery_state;\n    uint256 public fee;\n    bytes32 public keyhash;\n    event RequestedRandomness(bytes32 requestId);\n\n    event LotteryEnded(\n        bytes32 indexed requestId,\n        address recentWinner,\n        uint256 randomNumber\n    );\n\n    // 0\n    // 1\n    // 2\n    /**\n     * Use an interval in seconds and a timestamp to slow execution of Upkeep\n     */\n    uint256 public immutable lotteryDurationInSeconds;\n    uint256 public lastTimeStamp;\n    uint256 public lotteryCounter;\n    bool public shouldRestart;\n\n    constructor(\n        address _priceFeedAddress,\n        address _vrfCoordinator,\n        address _link,\n        uint256 _fee,\n        bytes32 _keyhash,\n        uint256 _usdEntryFee,\n        uint256 duration\n    ) public VRFConsumerBase(_vrfCoordinator, _link) {\n        usdEntryFee = _usdEntryFee;\n        ethUsdPriceFeed = AggregatorV3Interface(_priceFeedAddress);\n        lottery_state = LOTTERY_STATE.CLOSED;\n        fee = _fee;\n        keyhash = _keyhash;\n        lotteryDurationInSeconds = duration;\n        lastTimeStamp = block.timestamp;\n        lotteryCounter = 0;\n        shouldRestart = false;\n    }\n\n    function enter() public payable {\n        // $10 minimum\n        require(lottery_state == LOTTERY_STATE.OPEN);\n        require(msg.value >= getEntranceFee(), \"Not enough ETH!\");\n        players.push(payable(msg.sender));\n    }\n\n    function getEntranceFee() public view returns (uint256) {\n        (, int256 price, , , ) = ethUsdPriceFeed.latestRoundData();\n        uint256 adjustedPrice = uint256(price) * 10**10; // 18 decimals\n        // $50, $2,000 / ETH\n        // 50/2,000\n        // 50 * 100000 / 2000\n        uint256 costToEnter = (usdEntryFee * 10**18) / adjustedPrice;\n        return costToEnter;\n    }\n\n    /**\n     * Returns the latest price\n     */\n    function getLatestPrice() public view returns (int256) {\n        (\n            uint80 roundID,\n            int256 price,\n            uint256 startedAt,\n            uint256 timeStamp,\n            uint80 answeredInRound\n        ) = ethUsdPriceFeed.latestRoundData();\n        return price;\n    }\n\n    function startLottery() public onlyOwner {\n        require(\n            lottery_state == LOTTERY_STATE.CLOSED,\n            \"Can't start a new lottery yet!\"\n        );\n        lottery_state = LOTTERY_STATE.OPEN;\n        lastTimeStamp = block.timestamp;\n    }\n\n    function endLottery(bool _shouldRestart) public onlyOwner {\n        // uint256(\n        //     keccack256(\n        //         abi.encodePacked(\n        //             nonce, // nonce is preditable (aka, transaction number)\n        //             msg.sender, // msg.sender is predictable\n        //             block.difficulty, // can actually be manipulated by the miners!\n        //             block.timestamp // timestamp is predictable\n        //         )\n        //     )\n        // ) % players.length;\n        lottery_state = LOTTERY_STATE.CALCULATING_WINNER;\n        bytes32 requestId = requestRandomness(keyhash, fee);\n        emit RequestedRandomness(requestId);\n        shouldRestart = _shouldRestart;\n    }\n\n    function fulfillRandomness(bytes32 _requestId, uint256 _randomness)\n        internal\n        override\n    {\n        require(\n            lottery_state == LOTTERY_STATE.CALCULATING_WINNER,\n            \"You aren't there yet!\"\n        );\n        require(_randomness > 0, \"random not found\");\n        uint256 indexOfWinner = _randomness % players.length;\n        recentWinner = players[indexOfWinner];\n        emit LotteryEnded(_requestId, recentWinner, randomness);\n        recentWinner.transfer(address(this).balance);\n        // Reset\n        players = new address payable[](0);\n        lottery_state = LOTTERY_STATE.CLOSED;\n        randomness = _randomness;\n        if (shouldRestart) {\n            shouldRestart = false;\n            startLottery();\n        }\n    }\n\n    function endLotterySinglePlayer() internal {\n        randomness = 0; // First and the only one player is a winner\n        lottery_state = LOTTERY_STATE.CALCULATING_WINNER;\n        shouldRestart = true;\n        uint256 indexOfWinner = randomness;\n        recentWinner = players[indexOfWinner];\n        emit LotteryEnded(0, recentWinner, randomness);\n        recentWinner.transfer(address(this).balance);\n        // Reset\n        players = new address payable[](0);\n        lottery_state = LOTTERY_STATE.CLOSED;\n        if (shouldRestart) {\n            shouldRestart = false;\n            startLottery();\n        }\n    }\n\n    function checkUpkeep(bytes calldata checkData)\n        external\n        override\n        returns (bool upkeepNeeded, bytes memory performData)\n    {\n        upkeepNeeded =\n            (block.timestamp - lastTimeStamp) > lotteryDurationInSeconds;\n\n        // We don't use the checkData in this example\n        // checkData was defined when the Upkeep was registered\n        performData = checkData;\n    }\n\n    function performUpkeep(bytes calldata performData) external override {\n        lastTimeStamp = block.timestamp;\n        lotteryCounter = lotteryCounter + 1;\n\n        // We don't use the performData in this example\n        // performData is generated by the Keeper's call to your `checkUpkeep` function\n        performData;\n    }\n\n    // function checkUpkeep(bytes calldata checkData)\n    //     external\n    //     override\n    //     returns (bool upkeepNeeded, bytes memory performData)\n    // {\n    //     upkeepNeeded =\n    //         (lottery_state == LOTTERY_STATE.OPEN) &&\n    //         ((block.timestamp - lastTimeStamp) > lotteryDurationInSeconds);\n    // }\n\n    // function performUpkeep(bytes calldata performData) external override {\n    //     if (players.length == 1) {\n    //         endLotterySinglePlayer();\n    //     } else if (players.length > 1) {\n    //         endLottery(false);\n    //     }\n    //     lotteryCounter = lotteryCounter + 1;\n    //     lastTimeStamp = block.timestamp;\n    // }\n}\n","sourcePath":"contracts/ArtemLottery.sol","deployment":{"address":"0xE75aE895803e92e6B4a0582ce5e113eC0Cc77219","chainid":"42","blockHeight":28600083}}