{
  "abi": [
    {
      "inputs": [
        {
          "internalType": "address",
          "name": "_oracle",
          "type": "address"
        },
        {
          "internalType": "bytes32",
          "name": "_jobId",
          "type": "bytes32"
        },
        {
          "internalType": "uint256",
          "name": "_fee",
          "type": "uint256"
        },
        {
          "internalType": "address",
          "name": "_link",
          "type": "address"
        }
      ],
      "stateMutability": "nonpayable",
      "type": "constructor"
    },
    {
      "anonymous": false,
      "inputs": [
        {
          "indexed": true,
          "internalType": "bytes32",
          "name": "id",
          "type": "bytes32"
        }
      ],
      "name": "ChainlinkCancelled",
      "type": "event"
    },
    {
      "anonymous": false,
      "inputs": [
        {
          "indexed": true,
          "internalType": "bytes32",
          "name": "id",
          "type": "bytes32"
        }
      ],
      "name": "ChainlinkFulfilled",
      "type": "event"
    },
    {
      "anonymous": false,
      "inputs": [
        {
          "indexed": true,
          "internalType": "bytes32",
          "name": "id",
          "type": "bytes32"
        }
      ],
      "name": "ChainlinkRequested",
      "type": "event"
    },
    {
      "inputs": [
        {
          "internalType": "bytes32",
          "name": "_requestId",
          "type": "bytes32"
        },
        {
          "internalType": "uint256",
          "name": "_volume",
          "type": "uint256"
        }
      ],
      "name": "fulfill",
      "outputs": [],
      "stateMutability": "nonpayable",
      "type": "function"
    },
    {
      "inputs": [],
      "name": "requestVolumeData",
      "outputs": [
        {
          "internalType": "bytes32",
          "name": "requestId",
          "type": "bytes32"
        }
      ],
      "stateMutability": "nonpayable",
      "type": "function"
    },
    {
      "inputs": [],
      "name": "volume",
      "outputs": [
        {
          "internalType": "uint256",
          "name": "",
          "type": "uint256"
        }
      ],
      "stateMutability": "view",
      "type": "function"
    }
  ],
  "bytecode": "608060405260016004553480156200001657600080fd5b5060405162000f2138038062000f21833981016040819052620000399162000160565b6001600160a01b038116620000585762000052620000a2565b62000074565b600280546001600160a01b0319166001600160a01b0383161790555b50600780546001600160a01b0319166001600160a01b039490941693909317909255600855600955620001d0565b6200014173c89bd4e1632d3a43cb03aaad5262cbe4038bc5716001600160a01b03166338cc48316040518163ffffffff1660e01b8152600401602060405180830381865afa158015620000f9573d6000803e3d6000fd5b505050506040513d601f19601f820116820180604052508101906200011f9190620001ab565b600280546001600160a01b0319166001600160a01b0392909216919091179055565b565b80516001600160a01b03811681146200015b57600080fd5b919050565b600080600080608085870312156200017757600080fd5b620001828562000143565b93506020850151925060408501519150620001a06060860162000143565b905092959194509250565b600060208284031215620001be57600080fd5b620001c98262000143565b9392505050565b610d4180620001e06000396000f3fe608060405234801561001057600080fd5b50600436106100415760003560e01c80634357855e146100465780636021abac1461005b578063c618a1e414610075575b600080fd5b6100596100543660046109ed565b61007e565b005b610063610146565b60405190815260200160405180910390f35b61006360065481565b60008281526005602052604090205482906001600160a01b031633146100fc5760405162461bcd60e51b815260206004820152602860248201527f536f75726365206d75737420626520746865206f7261636c65206f6620746865604482015267081c995c5d595cdd60c21b60648201526084015b60405180910390fd5b60008181526005602052604080822080546001600160a01b03191690555182917f7cc135e0cebb02c3480ae5d74d377283180a2601f8f644edf7987b009316c63a91a25060065550565b60008061015d60085430634357855e60e01b610259565b905061019f6040518060400160405280600381526020016219d95d60ea1b815250604051806080016040528060498152602001610cc36049913983919061027e565b610205604051806040016040528060048152602001630e0c2e8d60e31b8152506040518060400160405280601881526020017f5241572e4554482e5553442e564f4c554d453234484f555200000000000000008152508361027e9092919063ffffffff16565b60408051808201909152600581526474696d657360d81b6020820152670de0b6b3a764000090610237908390836102a1565b600754600954610252916001600160a01b03169084906102bf565b9250505090565b6102616109b2565b6102696109b2565b610275818686866102de565b95945050505050565b608083015161028d908361031b565b608083015161029c908261031b565b505050565b60808301516102b0908361031b565b608083015161029c9082610332565b60006102d684848460016320214ca360e11b610396565b949350505050565b6102e66109b2565b6102f68560800151610100610593565b50509183526001600160a01b031660208301526001600160e01b031916604082015290565b61032882600383516105fe565b61029c82826106d2565b67ffffffffffffffff198112156103515761034d8282610700565b5050565b67ffffffffffffffff81131561036b5761034d8282610742565b6000811261037f5761034d826000836105fe565b61034d82600161039184600019610a25565b6105fe565b6004546040516bffffffffffffffffffffffff193060601b166020820152603481019190915260009060540160408051808303601f19018152918152815160209283012060045460608901526000818152600590935281832080546001600160a01b0319166001600160a01b038b16179055905190925082917fb5e6e01e79f91267dc17b4e6314d5d4d03593d2ceee0fbb452b750bd70ea5af991a2600082600080886000015189602001518a604001518b606001518a8d608001516000015160405160240161046d989796959493929190610ab1565b60408051601f198184030181529181526020820180516001600160e01b03166001600160e01b0319909416939093179092526002549151630200057560e51b81529092506001600160a01b0390911690634000aea0906104d5908a9089908690600401610b19565b6020604051808303816000875af11580156104f4573d6000803e3d6000fd5b505050506040513d601f19601f820116820180604052508101906105189190610b40565b6105705760405162461bcd60e51b815260206004820152602360248201527f756e61626c6520746f207472616e73666572416e6443616c6c20746f206f7261604482015262636c6560e81b60648201526084016100f3565b6001600460008282546105839190610b62565b9091555091979650505050505050565b6040805180820190915260608152600060208201526105b3602083610b7a565b156105db576105c3602083610b7a565b6105ce906020610b9c565b6105d89083610b62565b91505b506020808301829052604080518085526000815283019091019052815b92915050565b6017811161061f576106198360e0600585901b168317610765565b50505050565b60ff81116106495761063c836018611fe0600586901b1617610765565b506106198382600161078a565b61ffff811161067457610667836019611fe0600586901b1617610765565b506106198382600261078a565b63ffffffff81116106a15761069483601a611fe0600586901b1617610765565b506106198382600461078a565b67ffffffffffffffff811161029c576106c583601b611fe0600586901b1617610765565b506106198382600861078a565b6040805180820190915260608152600060208201526106f9838460000151518485516107b0565b9392505050565b61070b8260c3610765565b5061034d8261071c83600019610a25565b60405160200161072e91815260200190565b60405160208183030381529060405261089a565b61074d8260c2610765565b5061034d828260405160200161072e91815260200190565b6040805180820190915260608152600060208201526106f983846000015151846108a7565b6040805180820190915260608152600060208201526102d6848560000151518585610903565b60408051808201909152606081526000602082015282518211156107d357600080fd5b60208501516107e28386610b62565b11156108155761081585610805876020015187866108009190610b62565b610984565b610810906002610bb3565b61099b565b6000808651805187602083010193508088870111156108345787860182525b505050602084015b602084106108745780518252610853602083610b62565b9150610860602082610b62565b905061086d602085610b9c565b935061083c565b51815160001960208690036101000a019081169019919091161790525083949350505050565b61032882600283516105fe565b604080518082019091526060815260006020820152836020015183106108dc576108dc84856020015160026108109190610bb3565b8351805160208583010184815350808514156108f9576001810182525b5093949350505050565b60408051808201909152606081526000602082015260208501516109278584610b62565b111561093b5761093b856108058685610b62565b6000600161094b84610100610cb6565b6109559190610b9c565b90508551838682010185831982511617815250805184870111156109795783860181525b509495945050505050565b6000818311156109955750816105f8565b50919050565b81516109a78383610593565b5061061983826106d2565b6040805160a0810182526000808252602080830182905282840182905260608084018390528451808601909552845283015290608082015290565b60008060408385031215610a0057600080fd5b50508035926020909101359150565b634e487b7160e01b600052601160045260246000fd5b60008083128015600160ff1b850184121615610a4357610a43610a0f565b6001600160ff1b0384018313811615610a5e57610a5e610a0f565b50500390565b6000815180845260005b81811015610a8a57602081850181015186830182015201610a6e565b81811115610a9c576000602083870101525b50601f01601f19169290920160200192915050565b6001600160a01b0389811682526020820189905260408201889052861660608201526001600160e01b03198516608082015260a0810184905260c0810183905261010060e08201819052600090610b0a83820185610a64565b9b9a5050505050505050505050565b60018060a01b03841681528260208201526060604082015260006102756060830184610a64565b600060208284031215610b5257600080fd5b815180151581146106f957600080fd5b60008219821115610b7557610b75610a0f565b500190565b600082610b9757634e487b7160e01b600052601260045260246000fd5b500690565b600082821015610bae57610bae610a0f565b500390565b6000816000190483118215151615610bcd57610bcd610a0f565b500290565b600181815b80851115610c0d578160001904821115610bf357610bf3610a0f565b80851615610c0057918102915b93841c9390800290610bd7565b509250929050565b600082610c24575060016105f8565b81610c31575060006105f8565b8160018114610c475760028114610c5157610c6d565b60019150506105f8565b60ff841115610c6257610c62610a0f565b50506001821b6105f8565b5060208310610133831016604e8410600b8410161715610c90575081810a6105f8565b610c9a8383610bd2565b8060001904821115610cae57610cae610a0f565b029392505050565b60006106f98383610c1556fe68747470733a2f2f6d696e2d6170692e63727970746f636f6d706172652e636f6d2f646174612f70726963656d756c746966756c6c3f6673796d733d455448267473796d733d555344a26469706673582212205dd2f9f448c10b3855a8e803cb8d88f74ddf1856694b8b0c8cd6039e5d2dc6fc64736f6c634300080a0033",
  "bytecodeSha1": "2a42303c9d8ec7d4bbd6f9b43b908789e97d4a50",
  "compiler": {
    "evm_version": "istanbul",
    "optimizer": {
      "enabled": true,
      "runs": 200
    },
    "version": "0.8.10+commit.fc410830"
  },
  "contractName": "APIConsumer",
  "language": "Solidity",
  "natspec": {
    "kind": "dev",
    "methods": {
      "constructor": {
        "notice": "Network: Kovan Oracle: 0xc57b33452b4f7bb189bb5afae9cc4aba1f7a4fd8 Job ID: d5270d1c311941d0b08bead21fea7747 Fee: 0.1 LINK"
      },
      "fulfill(bytes32,uint256)": {
        "notice": "Receive the response in the form of uint256"
      },
      "requestVolumeData()": {
        "notice": "Create a Chainlink request to retrieve API response, find the target data, then multiply by 1000000000000000000 (to remove decimal places from data)."
      }
    },
    "version": 1
  },
  "opcodes": "PUSH1 0x80 PUSH1 0x40 MSTORE CALLVALUE DUP1 ISZERO PUSH2 0x10 JUMPI PUSH1 0x0 DUP1 REVERT JUMPDEST POP PUSH1 0x4 CALLDATASIZE LT PUSH2 0x41 JUMPI PUSH1 0x0 CALLDATALOAD PUSH1 0xE0 SHR DUP1 PUSH4 0x4357855E EQ PUSH2 0x46 JUMPI DUP1 PUSH4 0x6021ABAC EQ PUSH2 0x5B JUMPI DUP1 PUSH4 0xC618A1E4 EQ PUSH2 0x75 JUMPI JUMPDEST PUSH1 0x0 DUP1 REVERT JUMPDEST PUSH2 0x59 PUSH2 0x54 CALLDATASIZE PUSH1 0x4 PUSH2 0x9ED JUMP JUMPDEST PUSH2 0x7E JUMP JUMPDEST STOP JUMPDEST PUSH2 0x63 PUSH2 0x146 JUMP JUMPDEST PUSH1 0x40 MLOAD SWAP1 DUP2 MSTORE PUSH1 0x20 ADD PUSH1 0x40 MLOAD DUP1 SWAP2 SUB SWAP1 RETURN JUMPDEST PUSH2 0x63 PUSH1 0x6 SLOAD DUP2 JUMP JUMPDEST PUSH1 0x0 DUP3 DUP2 MSTORE PUSH1 0x5 PUSH1 0x20 MSTORE PUSH1 0x40 SWAP1 KECCAK256 SLOAD DUP3 SWAP1 PUSH1 0x1 PUSH1 0x1 PUSH1 0xA0 SHL SUB AND CALLER EQ PUSH2 0xFC JUMPI PUSH1 0x40 MLOAD PUSH3 0x461BCD PUSH1 0xE5 SHL DUP2 MSTORE PUSH1 0x20 PUSH1 0x4 DUP3 ADD MSTORE PUSH1 0x28 PUSH1 0x24 DUP3 ADD MSTORE PUSH32 0x536F75726365206D75737420626520746865206F7261636C65206F6620746865 PUSH1 0x44 DUP3 ADD MSTORE PUSH8 0x81C995C5D595CDD PUSH1 0xC2 SHL PUSH1 0x64 DUP3 ADD MSTORE PUSH1 0x84 ADD JUMPDEST PUSH1 0x40 MLOAD DUP1 SWAP2 SUB SWAP1 REVERT JUMPDEST PUSH1 0x0 DUP2 DUP2 MSTORE PUSH1 0x5 PUSH1 0x20 MSTORE PUSH1 0x40 DUP1 DUP3 KECCAK256 DUP1 SLOAD PUSH1 0x1 PUSH1 0x1 PUSH1 0xA0 SHL SUB NOT AND SWAP1 SSTORE MLOAD DUP3 SWAP2 PUSH32 0x7CC135E0CEBB02C3480AE5D74D377283180A2601F8F644EDF7987B009316C63A SWAP2 LOG2 POP PUSH1 0x6 SSTORE POP JUMP JUMPDEST PUSH1 0x0 DUP1 PUSH2 0x15D PUSH1 0x8 SLOAD ADDRESS PUSH4 0x4357855E PUSH1 0xE0 SHL PUSH2 0x259 JUMP JUMPDEST SWAP1 POP PUSH2 0x19F PUSH1 0x40 MLOAD DUP1 PUSH1 0x40 ADD PUSH1 0x40 MSTORE DUP1 PUSH1 0x3 DUP2 MSTORE PUSH1 0x20 ADD PUSH3 0x19D95D PUSH1 0xEA SHL DUP2 MSTORE POP PUSH1 0x40 MLOAD DUP1 PUSH1 0x80 ADD PUSH1 0x40 MSTORE DUP1 PUSH1 0x49 DUP2 MSTORE PUSH1 0x20 ADD PUSH2 0xCC3 PUSH1 0x49 SWAP2 CODECOPY DUP4 SWAP2 SWAP1 PUSH2 0x27E JUMP JUMPDEST PUSH2 0x205 PUSH1 0x40 MLOAD DUP1 PUSH1 0x40 ADD PUSH1 0x40 MSTORE DUP1 PUSH1 0x4 DUP2 MSTORE PUSH1 0x20 ADD PUSH4 0xE0C2E8D PUSH1 0xE3 SHL DUP2 MSTORE POP PUSH1 0x40 MLOAD DUP1 PUSH1 0x40 ADD PUSH1 0x40 MSTORE DUP1 PUSH1 0x18 DUP2 MSTORE PUSH1 0x20 ADD PUSH32 0x5241572E4554482E5553442E564F4C554D453234484F55520000000000000000 DUP2 MSTORE POP DUP4 PUSH2 0x27E SWAP1 SWAP3 SWAP2 SWAP1 PUSH4 0xFFFFFFFF AND JUMP JUMPDEST PUSH1 0x40 DUP1 MLOAD DUP1 DUP3 ADD SWAP1 SWAP2 MSTORE PUSH1 0x5 DUP2 MSTORE PUSH5 0x74696D6573 PUSH1 0xD8 SHL PUSH1 0x20 DUP3 ADD MSTORE PUSH8 0xDE0B6B3A7640000 SWAP1 PUSH2 0x237 SWAP1 DUP4 SWAP1 DUP4 PUSH2 0x2A1 JUMP JUMPDEST PUSH1 0x7 SLOAD PUSH1 0x9 SLOAD PUSH2 0x252 SWAP2 PUSH1 0x1 PUSH1 0x1 PUSH1 0xA0 SHL SUB AND SWAP1 DUP5 SWAP1 PUSH2 0x2BF JUMP JUMPDEST SWAP3 POP POP POP SWAP1 JUMP JUMPDEST PUSH2 0x261 PUSH2 0x9B2 JUMP JUMPDEST PUSH2 0x269 PUSH2 0x9B2 JUMP JUMPDEST PUSH2 0x275 DUP2 DUP7 DUP7 DUP7 PUSH2 0x2DE JUMP JUMPDEST SWAP6 SWAP5 POP POP POP POP POP JUMP JUMPDEST PUSH1 0x80 DUP4 ADD MLOAD PUSH2 0x28D SWAP1 DUP4 PUSH2 0x31B JUMP JUMPDEST PUSH1 0x80 DUP4 ADD MLOAD PUSH2 0x29C SWAP1 DUP3 PUSH2 0x31B JUMP JUMPDEST POP POP POP JUMP JUMPDEST PUSH1 0x80 DUP4 ADD MLOAD PUSH2 0x2B0 SWAP1 DUP4 PUSH2 0x31B JUMP JUMPDEST PUSH1 0x80 DUP4 ADD MLOAD PUSH2 0x29C SWAP1 DUP3 PUSH2 0x332 JUMP JUMPDEST PUSH1 0x0 PUSH2 0x2D6 DUP5 DUP5 DUP5 PUSH1 0x1 PUSH4 0x20214CA3 PUSH1 0xE1 SHL PUSH2 0x396 JUMP JUMPDEST SWAP5 SWAP4 POP POP POP POP JUMP JUMPDEST PUSH2 0x2E6 PUSH2 0x9B2 JUMP JUMPDEST PUSH2 0x2F6 DUP6 PUSH1 0x80 ADD MLOAD PUSH2 0x100 PUSH2 0x593 JUMP JUMPDEST POP POP SWAP2 DUP4 MSTORE PUSH1 0x1 PUSH1 0x1 PUSH1 0xA0 SHL SUB AND PUSH1 0x20 DUP4 ADD MSTORE PUSH1 0x1 PUSH1 0x1 PUSH1 0xE0 SHL SUB NOT AND PUSH1 0x40 DUP3 ADD MSTORE SWAP1 JUMP JUMPDEST PUSH2 0x328 DUP3 PUSH1 0x3 DUP4 MLOAD PUSH2 0x5FE JUMP JUMPDEST PUSH2 0x29C DUP3 DUP3 PUSH2 0x6D2 JUMP JUMPDEST PUSH8 0xFFFFFFFFFFFFFFFF NOT DUP2 SLT ISZERO PUSH2 0x351 JUMPI PUSH2 0x34D DUP3 DUP3 PUSH2 0x700 JUMP JUMPDEST POP POP JUMP JUMPDEST PUSH8 0xFFFFFFFFFFFFFFFF DUP2 SGT ISZERO PUSH2 0x36B JUMPI PUSH2 0x34D DUP3 DUP3 PUSH2 0x742 JUMP JUMPDEST PUSH1 0x0 DUP2 SLT PUSH2 0x37F JUMPI PUSH2 0x34D DUP3 PUSH1 0x0 DUP4 PUSH2 0x5FE JUMP JUMPDEST PUSH2 0x34D DUP3 PUSH1 0x1 PUSH2 0x391 DUP5 PUSH1 0x0 NOT PUSH2 0xA25 JUMP JUMPDEST PUSH2 0x5FE JUMP JUMPDEST PUSH1 0x4 SLOAD PUSH1 0x40 MLOAD PUSH12 0xFFFFFFFFFFFFFFFFFFFFFFFF NOT ADDRESS PUSH1 0x60 SHL AND PUSH1 0x20 DUP3 ADD MSTORE PUSH1 0x34 DUP2 ADD SWAP2 SWAP1 SWAP2 MSTORE PUSH1 0x0 SWAP1 PUSH1 0x54 ADD PUSH1 0x40 DUP1 MLOAD DUP1 DUP4 SUB PUSH1 0x1F NOT ADD DUP2 MSTORE SWAP2 DUP2 MSTORE DUP2 MLOAD PUSH1 0x20 SWAP3 DUP4 ADD KECCAK256 PUSH1 0x4 SLOAD PUSH1 0x60 DUP10 ADD MSTORE PUSH1 0x0 DUP2 DUP2 MSTORE PUSH1 0x5 SWAP1 SWAP4 MSTORE DUP2 DUP4 KECCAK256 DUP1 SLOAD PUSH1 0x1 PUSH1 0x1 PUSH1 0xA0 SHL SUB NOT AND PUSH1 0x1 PUSH1 0x1 PUSH1 0xA0 SHL SUB DUP12 AND OR SWAP1 SSTORE SWAP1 MLOAD SWAP1 SWAP3 POP DUP3 SWAP2 PUSH32 0xB5E6E01E79F91267DC17B4E6314D5D4D03593D2CEEE0FBB452B750BD70EA5AF9 SWAP2 LOG2 PUSH1 0x0 DUP3 PUSH1 0x0 DUP1 DUP9 PUSH1 0x0 ADD MLOAD DUP10 PUSH1 0x20 ADD MLOAD DUP11 PUSH1 0x40 ADD MLOAD DUP12 PUSH1 0x60 ADD MLOAD DUP11 DUP14 PUSH1 0x80 ADD MLOAD PUSH1 0x0 ADD MLOAD PUSH1 0x40 MLOAD PUSH1 0x24 ADD PUSH2 0x46D SWAP9 SWAP8 SWAP7 SWAP6 SWAP5 SWAP4 SWAP3 SWAP2 SWAP1 PUSH2 0xAB1 JUMP JUMPDEST PUSH1 0x40 DUP1 MLOAD PUSH1 0x1F NOT DUP2 DUP5 SUB ADD DUP2 MSTORE SWAP2 DUP2 MSTORE PUSH1 0x20 DUP3 ADD DUP1 MLOAD PUSH1 0x1 PUSH1 0x1 PUSH1 0xE0 SHL SUB AND PUSH1 0x1 PUSH1 0x1 PUSH1 0xE0 SHL SUB NOT SWAP1 SWAP5 AND SWAP4 SWAP1 SWAP4 OR SWAP1 SWAP3 MSTORE PUSH1 0x2 SLOAD SWAP2 MLOAD PUSH4 0x2000575 PUSH1 0xE5 SHL DUP2 MSTORE SWAP1 SWAP3 POP PUSH1 0x1 PUSH1 0x1 PUSH1 0xA0 SHL SUB SWAP1 SWAP2 AND SWAP1 PUSH4 0x4000AEA0 SWAP1 PUSH2 0x4D5 SWAP1 DUP11 SWAP1 DUP10 SWAP1 DUP7 SWAP1 PUSH1 0x4 ADD PUSH2 0xB19 JUMP JUMPDEST PUSH1 0x20 PUSH1 0x40 MLOAD DUP1 DUP4 SUB DUP2 PUSH1 0x0 DUP8 GAS CALL ISZERO DUP1 ISZERO PUSH2 0x4F4 JUMPI RETURNDATASIZE PUSH1 0x0 DUP1 RETURNDATACOPY RETURNDATASIZE PUSH1 0x0 REVERT JUMPDEST POP POP POP POP PUSH1 0x40 MLOAD RETURNDATASIZE PUSH1 0x1F NOT PUSH1 0x1F DUP3 ADD AND DUP3 ADD DUP1 PUSH1 0x40 MSTORE POP DUP2 ADD SWAP1 PUSH2 0x518 SWAP2 SWAP1 PUSH2 0xB40 JUMP JUMPDEST PUSH2 0x570 JUMPI PUSH1 0x40 MLOAD PUSH3 0x461BCD PUSH1 0xE5 SHL DUP2 MSTORE PUSH1 0x20 PUSH1 0x4 DUP3 ADD MSTORE PUSH1 0x23 PUSH1 0x24 DUP3 ADD MSTORE PUSH32 0x756E61626C6520746F207472616E73666572416E6443616C6C20746F206F7261 PUSH1 0x44 DUP3 ADD MSTORE PUSH3 0x636C65 PUSH1 0xE8 SHL PUSH1 0x64 DUP3 ADD MSTORE PUSH1 0x84 ADD PUSH2 0xF3 JUMP JUMPDEST PUSH1 0x1 PUSH1 0x4 PUSH1 0x0 DUP3 DUP3 SLOAD PUSH2 0x583 SWAP2 SWAP1 PUSH2 0xB62 JUMP JUMPDEST SWAP1 SWAP2 SSTORE POP SWAP2 SWAP8 SWAP7 POP POP POP POP POP POP POP JUMP JUMPDEST PUSH1 0x40 DUP1 MLOAD DUP1 DUP3 ADD SWAP1 SWAP2 MSTORE PUSH1 0x60 DUP2 MSTORE PUSH1 0x0 PUSH1 0x20 DUP3 ADD MSTORE PUSH2 0x5B3 PUSH1 0x20 DUP4 PUSH2 0xB7A JUMP JUMPDEST ISZERO PUSH2 0x5DB JUMPI PUSH2 0x5C3 PUSH1 0x20 DUP4 PUSH2 0xB7A JUMP JUMPDEST PUSH2 0x5CE SWAP1 PUSH1 0x20 PUSH2 0xB9C JUMP JUMPDEST PUSH2 0x5D8 SWAP1 DUP4 PUSH2 0xB62 JUMP JUMPDEST SWAP2 POP JUMPDEST POP PUSH1 0x20 DUP1 DUP4 ADD DUP3 SWAP1 MSTORE PUSH1 0x40 DUP1 MLOAD DUP1 DUP6 MSTORE PUSH1 0x0 DUP2 MSTORE DUP4 ADD SWAP1 SWAP2 ADD SWAP1 MSTORE DUP2 JUMPDEST SWAP3 SWAP2 POP POP JUMP JUMPDEST PUSH1 0x17 DUP2 GT PUSH2 0x61F JUMPI PUSH2 0x619 DUP4 PUSH1 0xE0 PUSH1 0x5 DUP6 SWAP1 SHL AND DUP4 OR PUSH2 0x765 JUMP JUMPDEST POP POP POP POP JUMP JUMPDEST PUSH1 0xFF DUP2 GT PUSH2 0x649 JUMPI PUSH2 0x63C DUP4 PUSH1 0x18 PUSH2 0x1FE0 PUSH1 0x5 DUP7 SWAP1 SHL AND OR PUSH2 0x765 JUMP JUMPDEST POP PUSH2 0x619 DUP4 DUP3 PUSH1 0x1 PUSH2 0x78A JUMP JUMPDEST PUSH2 0xFFFF DUP2 GT PUSH2 0x674 JUMPI PUSH2 0x667 DUP4 PUSH1 0x19 PUSH2 0x1FE0 PUSH1 0x5 DUP7 SWAP1 SHL AND OR PUSH2 0x765 JUMP JUMPDEST POP PUSH2 0x619 DUP4 DUP3 PUSH1 0x2 PUSH2 0x78A JUMP JUMPDEST PUSH4 0xFFFFFFFF DUP2 GT PUSH2 0x6A1 JUMPI PUSH2 0x694 DUP4 PUSH1 0x1A PUSH2 0x1FE0 PUSH1 0x5 DUP7 SWAP1 SHL AND OR PUSH2 0x765 JUMP JUMPDEST POP PUSH2 0x619 DUP4 DUP3 PUSH1 0x4 PUSH2 0x78A JUMP JUMPDEST PUSH8 0xFFFFFFFFFFFFFFFF DUP2 GT PUSH2 0x29C JUMPI PUSH2 0x6C5 DUP4 PUSH1 0x1B PUSH2 0x1FE0 PUSH1 0x5 DUP7 SWAP1 SHL AND OR PUSH2 0x765 JUMP JUMPDEST POP PUSH2 0x619 DUP4 DUP3 PUSH1 0x8 PUSH2 0x78A JUMP JUMPDEST PUSH1 0x40 DUP1 MLOAD DUP1 DUP3 ADD SWAP1 SWAP2 MSTORE PUSH1 0x60 DUP2 MSTORE PUSH1 0x0 PUSH1 0x20 DUP3 ADD MSTORE PUSH2 0x6F9 DUP4 DUP5 PUSH1 0x0 ADD MLOAD MLOAD DUP5 DUP6 MLOAD PUSH2 0x7B0 JUMP JUMPDEST SWAP4 SWAP3 POP POP POP JUMP JUMPDEST PUSH2 0x70B DUP3 PUSH1 0xC3 PUSH2 0x765 JUMP JUMPDEST POP PUSH2 0x34D DUP3 PUSH2 0x71C DUP4 PUSH1 0x0 NOT PUSH2 0xA25 JUMP JUMPDEST PUSH1 0x40 MLOAD PUSH1 0x20 ADD PUSH2 0x72E SWAP2 DUP2 MSTORE PUSH1 0x20 ADD SWAP1 JUMP JUMPDEST PUSH1 0x40 MLOAD PUSH1 0x20 DUP2 DUP4 SUB SUB DUP2 MSTORE SWAP1 PUSH1 0x40 MSTORE PUSH2 0x89A JUMP JUMPDEST PUSH2 0x74D DUP3 PUSH1 0xC2 PUSH2 0x765 JUMP JUMPDEST POP PUSH2 0x34D DUP3 DUP3 PUSH1 0x40 MLOAD PUSH1 0x20 ADD PUSH2 0x72E SWAP2 DUP2 MSTORE PUSH1 0x20 ADD SWAP1 JUMP JUMPDEST PUSH1 0x40 DUP1 MLOAD DUP1 DUP3 ADD SWAP1 SWAP2 MSTORE PUSH1 0x60 DUP2 MSTORE PUSH1 0x0 PUSH1 0x20 DUP3 ADD MSTORE PUSH2 0x6F9 DUP4 DUP5 PUSH1 0x0 ADD MLOAD MLOAD DUP5 PUSH2 0x8A7 JUMP JUMPDEST PUSH1 0x40 DUP1 MLOAD DUP1 DUP3 ADD SWAP1 SWAP2 MSTORE PUSH1 0x60 DUP2 MSTORE PUSH1 0x0 PUSH1 0x20 DUP3 ADD MSTORE PUSH2 0x2D6 DUP5 DUP6 PUSH1 0x0 ADD MLOAD MLOAD DUP6 DUP6 PUSH2 0x903 JUMP JUMPDEST PUSH1 0x40 DUP1 MLOAD DUP1 DUP3 ADD SWAP1 SWAP2 MSTORE PUSH1 0x60 DUP2 MSTORE PUSH1 0x0 PUSH1 0x20 DUP3 ADD MSTORE DUP3 MLOAD DUP3 GT ISZERO PUSH2 0x7D3 JUMPI PUSH1 0x0 DUP1 REVERT JUMPDEST PUSH1 0x20 DUP6 ADD MLOAD PUSH2 0x7E2 DUP4 DUP7 PUSH2 0xB62 JUMP JUMPDEST GT ISZERO PUSH2 0x815 JUMPI PUSH2 0x815 DUP6 PUSH2 0x805 DUP8 PUSH1 0x20 ADD MLOAD DUP8 DUP7 PUSH2 0x800 SWAP2 SWAP1 PUSH2 0xB62 JUMP JUMPDEST PUSH2 0x984 JUMP JUMPDEST PUSH2 0x810 SWAP1 PUSH1 0x2 PUSH2 0xBB3 JUMP JUMPDEST PUSH2 0x99B JUMP JUMPDEST PUSH1 0x0 DUP1 DUP7 MLOAD DUP1 MLOAD DUP8 PUSH1 0x20 DUP4 ADD ADD SWAP4 POP DUP1 DUP9 DUP8 ADD GT ISZERO PUSH2 0x834 JUMPI DUP8 DUP7 ADD DUP3 MSTORE JUMPDEST POP POP POP PUSH1 0x20 DUP5 ADD JUMPDEST PUSH1 0x20 DUP5 LT PUSH2 0x874 JUMPI DUP1 MLOAD DUP3 MSTORE PUSH2 0x853 PUSH1 0x20 DUP4 PUSH2 0xB62 JUMP JUMPDEST SWAP2 POP PUSH2 0x860 PUSH1 0x20 DUP3 PUSH2 0xB62 JUMP JUMPDEST SWAP1 POP PUSH2 0x86D PUSH1 0x20 DUP6 PUSH2 0xB9C JUMP JUMPDEST SWAP4 POP PUSH2 0x83C JUMP JUMPDEST MLOAD DUP2 MLOAD PUSH1 0x0 NOT PUSH1 0x20 DUP7 SWAP1 SUB PUSH2 0x100 EXP ADD SWAP1 DUP2 AND SWAP1 NOT SWAP2 SWAP1 SWAP2 AND OR SWAP1 MSTORE POP DUP4 SWAP5 SWAP4 POP POP POP POP JUMP JUMPDEST PUSH2 0x328 DUP3 PUSH1 0x2 DUP4 MLOAD PUSH2 0x5FE JUMP JUMPDEST PUSH1 0x40 DUP1 MLOAD DUP1 DUP3 ADD SWAP1 SWAP2 MSTORE PUSH1 0x60 DUP2 MSTORE PUSH1 0x0 PUSH1 0x20 DUP3 ADD MSTORE DUP4 PUSH1 0x20 ADD MLOAD DUP4 LT PUSH2 0x8DC JUMPI PUSH2 0x8DC DUP5 DUP6 PUSH1 0x20 ADD MLOAD PUSH1 0x2 PUSH2 0x810 SWAP2 SWAP1 PUSH2 0xBB3 JUMP JUMPDEST DUP4 MLOAD DUP1 MLOAD PUSH1 0x20 DUP6 DUP4 ADD ADD DUP5 DUP2 MSTORE8 POP DUP1 DUP6 EQ ISZERO PUSH2 0x8F9 JUMPI PUSH1 0x1 DUP2 ADD DUP3 MSTORE JUMPDEST POP SWAP4 SWAP5 SWAP4 POP POP POP POP JUMP JUMPDEST PUSH1 0x40 DUP1 MLOAD DUP1 DUP3 ADD SWAP1 SWAP2 MSTORE PUSH1 0x60 DUP2 MSTORE PUSH1 0x0 PUSH1 0x20 DUP3 ADD MSTORE PUSH1 0x20 DUP6 ADD MLOAD PUSH2 0x927 DUP6 DUP5 PUSH2 0xB62 JUMP JUMPDEST GT ISZERO PUSH2 0x93B JUMPI PUSH2 0x93B DUP6 PUSH2 0x805 DUP7 DUP6 PUSH2 0xB62 JUMP JUMPDEST PUSH1 0x0 PUSH1 0x1 PUSH2 0x94B DUP5 PUSH2 0x100 PUSH2 0xCB6 JUMP JUMPDEST PUSH2 0x955 SWAP2 SWAP1 PUSH2 0xB9C JUMP JUMPDEST SWAP1 POP DUP6 MLOAD DUP4 DUP7 DUP3 ADD ADD DUP6 DUP4 NOT DUP3 MLOAD AND OR DUP2 MSTORE POP DUP1 MLOAD DUP5 DUP8 ADD GT ISZERO PUSH2 0x979 JUMPI DUP4 DUP7 ADD DUP2 MSTORE JUMPDEST POP SWAP5 SWAP6 SWAP5 POP POP POP POP POP JUMP JUMPDEST PUSH1 0x0 DUP2 DUP4 GT ISZERO PUSH2 0x995 JUMPI POP DUP2 PUSH2 0x5F8 JUMP JUMPDEST POP SWAP2 SWAP1 POP JUMP JUMPDEST DUP2 MLOAD PUSH2 0x9A7 DUP4 DUP4 PUSH2 0x593 JUMP JUMPDEST POP PUSH2 0x619 DUP4 DUP3 PUSH2 0x6D2 JUMP JUMPDEST PUSH1 0x40 DUP1 MLOAD PUSH1 0xA0 DUP2 ADD DUP3 MSTORE PUSH1 0x0 DUP1 DUP3 MSTORE PUSH1 0x20 DUP1 DUP4 ADD DUP3 SWAP1 MSTORE DUP3 DUP5 ADD DUP3 SWAP1 MSTORE PUSH1 0x60 DUP1 DUP5 ADD DUP4 SWAP1 MSTORE DUP5 MLOAD DUP1 DUP7 ADD SWAP1 SWAP6 MSTORE DUP5 MSTORE DUP4 ADD MSTORE SWAP1 PUSH1 0x80 DUP3 ADD MSTORE SWAP1 JUMP JUMPDEST PUSH1 0x0 DUP1 PUSH1 0x40 DUP4 DUP6 SUB SLT ISZERO PUSH2 0xA00 JUMPI PUSH1 0x0 DUP1 REVERT JUMPDEST POP POP DUP1 CALLDATALOAD SWAP3 PUSH1 0x20 SWAP1 SWAP2 ADD CALLDATALOAD SWAP2 POP JUMP JUMPDEST PUSH4 0x4E487B71 PUSH1 0xE0 SHL PUSH1 0x0 MSTORE PUSH1 0x11 PUSH1 0x4 MSTORE PUSH1 0x24 PUSH1 0x0 REVERT JUMPDEST PUSH1 0x0 DUP1 DUP4 SLT DUP1 ISZERO PUSH1 0x1 PUSH1 0xFF SHL DUP6 ADD DUP5 SLT AND ISZERO PUSH2 0xA43 JUMPI PUSH2 0xA43 PUSH2 0xA0F JUMP JUMPDEST PUSH1 0x1 PUSH1 0x1 PUSH1 0xFF SHL SUB DUP5 ADD DUP4 SGT DUP2 AND ISZERO PUSH2 0xA5E JUMPI PUSH2 0xA5E PUSH2 0xA0F JUMP JUMPDEST POP POP SUB SWAP1 JUMP JUMPDEST PUSH1 0x0 DUP2 MLOAD DUP1 DUP5 MSTORE PUSH1 0x0 JUMPDEST DUP2 DUP2 LT ISZERO PUSH2 0xA8A JUMPI PUSH1 0x20 DUP2 DUP6 ADD DUP2 ADD MLOAD DUP7 DUP4 ADD DUP3 ADD MSTORE ADD PUSH2 0xA6E JUMP JUMPDEST DUP2 DUP2 GT ISZERO PUSH2 0xA9C JUMPI PUSH1 0x0 PUSH1 0x20 DUP4 DUP8 ADD ADD MSTORE JUMPDEST POP PUSH1 0x1F ADD PUSH1 0x1F NOT AND SWAP3 SWAP1 SWAP3 ADD PUSH1 0x20 ADD SWAP3 SWAP2 POP POP JUMP JUMPDEST PUSH1 0x1 PUSH1 0x1 PUSH1 0xA0 SHL SUB DUP10 DUP2 AND DUP3 MSTORE PUSH1 0x20 DUP3 ADD DUP10 SWAP1 MSTORE PUSH1 0x40 DUP3 ADD DUP9 SWAP1 MSTORE DUP7 AND PUSH1 0x60 DUP3 ADD MSTORE PUSH1 0x1 PUSH1 0x1 PUSH1 0xE0 SHL SUB NOT DUP6 AND PUSH1 0x80 DUP3 ADD MSTORE PUSH1 0xA0 DUP2 ADD DUP5 SWAP1 MSTORE PUSH1 0xC0 DUP2 ADD DUP4 SWAP1 MSTORE PUSH2 0x100 PUSH1 0xE0 DUP3 ADD DUP2 SWAP1 MSTORE PUSH1 0x0 SWAP1 PUSH2 0xB0A DUP4 DUP3 ADD DUP6 PUSH2 0xA64 JUMP JUMPDEST SWAP12 SWAP11 POP POP POP POP POP POP POP POP POP POP POP JUMP JUMPDEST PUSH1 0x1 DUP1 PUSH1 0xA0 SHL SUB DUP5 AND DUP2 MSTORE DUP3 PUSH1 0x20 DUP3 ADD MSTORE PUSH1 0x60 PUSH1 0x40 DUP3 ADD MSTORE PUSH1 0x0 PUSH2 0x275 PUSH1 0x60 DUP4 ADD DUP5 PUSH2 0xA64 JUMP JUMPDEST PUSH1 0x0 PUSH1 0x20 DUP3 DUP5 SUB SLT ISZERO PUSH2 0xB52 JUMPI PUSH1 0x0 DUP1 REVERT JUMPDEST DUP2 MLOAD DUP1 ISZERO ISZERO DUP2 EQ PUSH2 0x6F9 JUMPI PUSH1 0x0 DUP1 REVERT JUMPDEST PUSH1 0x0 DUP3 NOT DUP3 GT ISZERO PUSH2 0xB75 JUMPI PUSH2 0xB75 PUSH2 0xA0F JUMP JUMPDEST POP ADD SWAP1 JUMP JUMPDEST PUSH1 0x0 DUP3 PUSH2 0xB97 JUMPI PUSH4 0x4E487B71 PUSH1 0xE0 SHL PUSH1 0x0 MSTORE PUSH1 0x12 PUSH1 0x4 MSTORE PUSH1 0x24 PUSH1 0x0 REVERT JUMPDEST POP MOD SWAP1 JUMP JUMPDEST PUSH1 0x0 DUP3 DUP3 LT ISZERO PUSH2 0xBAE JUMPI PUSH2 0xBAE PUSH2 0xA0F JUMP JUMPDEST POP SUB SWAP1 JUMP JUMPDEST PUSH1 0x0 DUP2 PUSH1 0x0 NOT DIV DUP4 GT DUP3 ISZERO ISZERO AND ISZERO PUSH2 0xBCD JUMPI PUSH2 0xBCD PUSH2 0xA0F JUMP JUMPDEST POP MUL SWAP1 JUMP JUMPDEST PUSH1 0x1 DUP2 DUP2 JUMPDEST DUP1 DUP6 GT ISZERO PUSH2 0xC0D JUMPI DUP2 PUSH1 0x0 NOT DIV DUP3 GT ISZERO PUSH2 0xBF3 JUMPI PUSH2 0xBF3 PUSH2 0xA0F JUMP JUMPDEST DUP1 DUP6 AND ISZERO PUSH2 0xC00 JUMPI SWAP2 DUP2 MUL SWAP2 JUMPDEST SWAP4 DUP5 SHR SWAP4 SWAP1 DUP1 MUL SWAP1 PUSH2 0xBD7 JUMP JUMPDEST POP SWAP3 POP SWAP3 SWAP1 POP JUMP JUMPDEST PUSH1 0x0 DUP3 PUSH2 0xC24 JUMPI POP PUSH1 0x1 PUSH2 0x5F8 JUMP JUMPDEST DUP2 PUSH2 0xC31 JUMPI POP PUSH1 0x0 PUSH2 0x5F8 JUMP JUMPDEST DUP2 PUSH1 0x1 DUP2 EQ PUSH2 0xC47 JUMPI PUSH1 0x2 DUP2 EQ PUSH2 0xC51 JUMPI PUSH2 0xC6D JUMP JUMPDEST PUSH1 0x1 SWAP2 POP POP PUSH2 0x5F8 JUMP JUMPDEST PUSH1 0xFF DUP5 GT ISZERO PUSH2 0xC62 JUMPI PUSH2 0xC62 PUSH2 0xA0F JUMP JUMPDEST POP POP PUSH1 0x1 DUP3 SHL PUSH2 0x5F8 JUMP JUMPDEST POP PUSH1 0x20 DUP4 LT PUSH2 0x133 DUP4 LT AND PUSH1 0x4E DUP5 LT PUSH1 0xB DUP5 LT AND OR ISZERO PUSH2 0xC90 JUMPI POP DUP2 DUP2 EXP PUSH2 0x5F8 JUMP JUMPDEST PUSH2 0xC9A DUP4 DUP4 PUSH2 0xBD2 JUMP JUMPDEST DUP1 PUSH1 0x0 NOT DIV DUP3 GT ISZERO PUSH2 0xCAE JUMPI PUSH2 0xCAE PUSH2 0xA0F JUMP JUMPDEST MUL SWAP4 SWAP3 POP POP POP JUMP JUMPDEST PUSH1 0x0 PUSH2 0x6F9 DUP4 DUP4 PUSH2 0xC15 JUMP INVALID PUSH9 0x747470733A2F2F6D69 PUSH15 0x2D6170692E63727970746F636F6D70 PUSH2 0x7265 0x2E PUSH4 0x6F6D2F64 PUSH2 0x7461 0x2F PUSH17 0x726963656D756C746966756C6C3F667379 PUSH14 0x733D455448267473796D733D5553 DIFFICULTY LOG2 PUSH5 0x6970667358 0x22 SLT KECCAK256 0x5D 0xD2 0xF9 DELEGATECALL BASEFEE 0xC1 SIGNEXTEND CODESIZE SSTORE 0xA8 0xE8 SUB 0xCB DUP14 DUP9 0xF7 0x4D 0xDF XOR JUMP PUSH10 0x4B8B0C8CD6039E5D2DC6 0xFC PUSH5 0x736F6C6343 STOP ADDMOD EXP STOP CALLER ",
  "sha1": "bb5d0d56b3dc5b9cc223d2fcd66724f649c996ac",
  "source": "// SPDX-License-Identifier: MIT\npragma solidity ^0.8.0;\n\nimport \"@chainlink/contracts/src/v0.8/ChainlinkClient.sol\";\n\ncontract APIConsumer is ChainlinkClient {\n    using Chainlink for Chainlink.Request;\n    uint256 public volume;\n    \n    address private oracle;\n    bytes32 private jobId;\n    uint256 private fee;\n    \n    /**\n     * Network: Kovan\n     * Oracle: 0xc57b33452b4f7bb189bb5afae9cc4aba1f7a4fd8\n     * Job ID: d5270d1c311941d0b08bead21fea7747\n     * Fee: 0.1 LINK\n     */\n    constructor(address _oracle, bytes32 _jobId, uint256 _fee, address _link) {\n        if (_link == address(0)) {\n            setPublicChainlinkToken();\n        } else {\n            setChainlinkToken(_link);\n        }\n        oracle = _oracle;\n        // jobId = stringToBytes32(_jobId);\n        jobId = _jobId;\n        fee = _fee;\n    }\n    \n    /**\n     * Create a Chainlink request to retrieve API response, find the target\n     * data, then multiply by 1000000000000000000 (to remove decimal places from data).\n     */\n    function requestVolumeData() public returns (bytes32 requestId) \n    {\n        Chainlink.Request memory request = buildChainlinkRequest(jobId, address(this), this.fulfill.selector);\n        \n        // Set the URL to perform the GET request on\n        request.add(\"get\", \"https://min-api.cryptocompare.com/data/pricemultifull?fsyms=ETH&tsyms=USD\");\n        \n        // Set the path to find the desired data in the API response, where the response format is:\n        // {\"RAW\":\n        //   {\"ETH\":\n        //    {\"USD\":\n        //     {\n        //      \"VOLUME24HOUR\": xxx.xxx,\n        //     }\n        //    }\n        //   }\n        //  }\n        request.add(\"path\", \"RAW.ETH.USD.VOLUME24HOUR\");\n        \n        // Multiply the result by 1000000000000000000 to remove decimals\n        int timesAmount = 10**18;\n        request.addInt(\"times\", timesAmount);\n        \n        // Sends the request\n        return sendChainlinkRequestTo(oracle, request, fee);\n    }\n    \n    /**\n     * Receive the response in the form of uint256\n     */ \n    function fulfill(bytes32 _requestId, uint256 _volume) public recordChainlinkFulfillment(_requestId)\n    {\n        volume = _volume;\n    }\n\n    // function stringToBytes32(string memory source) public pure returns (bytes32 result) {\n    //     bytes memory tempEmptyStringTest = bytes(source);\n    //     if (tempEmptyStringTest.length == 0) {\n    //         return 0x0;\n    //     }\n\n    //     assembly {\n    //         result := mload(add(source, 32))\n    //     }\n    // }\n}\n",
  "sourcePath": "contracts/APIConsumer.sol",
  "type": "contract"
}